{
  "contractName": "ERC721Lending",
  "abi": [
    {
      "inputs": [
        {
          "internalType": "address",
          "name": "Payout",
          "type": "address"
        },
        {
          "internalType": "address",
          "name": "TokenAddress",
          "type": "address"
        }
      ],
      "stateMutability": "nonpayable",
      "type": "constructor"
    },
    {
      "anonymous": false,
      "inputs": [
        {
          "indexed": false,
          "internalType": "uint256",
          "name": "offerId",
          "type": "uint256"
        },
        {
          "indexed": false,
          "internalType": "string",
          "name": "status",
          "type": "string"
        }
      ],
      "name": "OfferStatusChange",
      "type": "event"
    },
    {
      "anonymous": false,
      "inputs": [
        {
          "indexed": true,
          "internalType": "bytes32",
          "name": "role",
          "type": "bytes32"
        },
        {
          "indexed": true,
          "internalType": "bytes32",
          "name": "previousAdminRole",
          "type": "bytes32"
        },
        {
          "indexed": true,
          "internalType": "bytes32",
          "name": "newAdminRole",
          "type": "bytes32"
        }
      ],
      "name": "RoleAdminChanged",
      "type": "event"
    },
    {
      "anonymous": false,
      "inputs": [
        {
          "indexed": true,
          "internalType": "bytes32",
          "name": "role",
          "type": "bytes32"
        },
        {
          "indexed": true,
          "internalType": "address",
          "name": "account",
          "type": "address"
        },
        {
          "indexed": true,
          "internalType": "address",
          "name": "sender",
          "type": "address"
        }
      ],
      "name": "RoleGranted",
      "type": "event"
    },
    {
      "anonymous": false,
      "inputs": [
        {
          "indexed": true,
          "internalType": "bytes32",
          "name": "role",
          "type": "bytes32"
        },
        {
          "indexed": true,
          "internalType": "address",
          "name": "account",
          "type": "address"
        },
        {
          "indexed": true,
          "internalType": "address",
          "name": "sender",
          "type": "address"
        }
      ],
      "name": "RoleRevoked",
      "type": "event"
    },
    {
      "inputs": [],
      "name": "DEFAULT_ADMIN_ROLE",
      "outputs": [
        {
          "internalType": "bytes32",
          "name": "",
          "type": "bytes32"
        }
      ],
      "stateMutability": "view",
      "type": "function",
      "constant": true
    },
    {
      "inputs": [
        {
          "internalType": "bytes32",
          "name": "role",
          "type": "bytes32"
        }
      ],
      "name": "getRoleAdmin",
      "outputs": [
        {
          "internalType": "bytes32",
          "name": "",
          "type": "bytes32"
        }
      ],
      "stateMutability": "view",
      "type": "function",
      "constant": true
    },
    {
      "inputs": [
        {
          "internalType": "bytes32",
          "name": "role",
          "type": "bytes32"
        },
        {
          "internalType": "address",
          "name": "account",
          "type": "address"
        }
      ],
      "name": "grantRole",
      "outputs": [],
      "stateMutability": "nonpayable",
      "type": "function"
    },
    {
      "inputs": [
        {
          "internalType": "bytes32",
          "name": "role",
          "type": "bytes32"
        },
        {
          "internalType": "address",
          "name": "account",
          "type": "address"
        }
      ],
      "name": "hasRole",
      "outputs": [
        {
          "internalType": "bool",
          "name": "",
          "type": "bool"
        }
      ],
      "stateMutability": "view",
      "type": "function",
      "constant": true
    },
    {
      "inputs": [
        {
          "internalType": "address",
          "name": "",
          "type": "address"
        },
        {
          "internalType": "address",
          "name": "",
          "type": "address"
        },
        {
          "internalType": "uint256",
          "name": "",
          "type": "uint256"
        },
        {
          "internalType": "bytes",
          "name": "",
          "type": "bytes"
        }
      ],
      "name": "onERC721Received",
      "outputs": [
        {
          "internalType": "bytes4",
          "name": "",
          "type": "bytes4"
        }
      ],
      "stateMutability": "nonpayable",
      "type": "function"
    },
    {
      "inputs": [
        {
          "internalType": "bytes32",
          "name": "role",
          "type": "bytes32"
        },
        {
          "internalType": "address",
          "name": "account",
          "type": "address"
        }
      ],
      "name": "renounceRole",
      "outputs": [],
      "stateMutability": "nonpayable",
      "type": "function"
    },
    {
      "inputs": [
        {
          "internalType": "bytes32",
          "name": "role",
          "type": "bytes32"
        },
        {
          "internalType": "address",
          "name": "account",
          "type": "address"
        }
      ],
      "name": "revokeRole",
      "outputs": [],
      "stateMutability": "nonpayable",
      "type": "function"
    },
    {
      "inputs": [
        {
          "internalType": "bytes4",
          "name": "interfaceId",
          "type": "bytes4"
        }
      ],
      "name": "supportsInterface",
      "outputs": [
        {
          "internalType": "bool",
          "name": "",
          "type": "bool"
        }
      ],
      "stateMutability": "view",
      "type": "function",
      "constant": true
    },
    {
      "inputs": [
        {
          "internalType": "uint256",
          "name": "offerId",
          "type": "uint256"
        }
      ],
      "name": "getOffer",
      "outputs": [
        {
          "internalType": "address",
          "name": "",
          "type": "address"
        },
        {
          "internalType": "address",
          "name": "",
          "type": "address"
        },
        {
          "internalType": "uint256",
          "name": "",
          "type": "uint256"
        },
        {
          "internalType": "uint256",
          "name": "",
          "type": "uint256"
        },
        {
          "internalType": "uint256",
          "name": "",
          "type": "uint256"
        },
        {
          "internalType": "address",
          "name": "",
          "type": "address"
        },
        {
          "internalType": "uint256",
          "name": "",
          "type": "uint256"
        },
        {
          "internalType": "uint256",
          "name": "",
          "type": "uint256"
        },
        {
          "internalType": "string",
          "name": "",
          "type": "string"
        }
      ],
      "stateMutability": "view",
      "type": "function",
      "constant": true
    },
    {
      "inputs": [
        {
          "internalType": "address",
          "name": "addr",
          "type": "address"
        }
      ],
      "name": "getOffersOfAddress",
      "outputs": [
        {
          "internalType": "uint256[]",
          "name": "",
          "type": "uint256[]"
        }
      ],
      "stateMutability": "view",
      "type": "function",
      "constant": true
    },
    {
      "inputs": [],
      "name": "getOfferQuantities",
      "outputs": [
        {
          "internalType": "uint256",
          "name": "",
          "type": "uint256"
        }
      ],
      "stateMutability": "view",
      "type": "function",
      "constant": true
    },
    {
      "inputs": [
        {
          "internalType": "uint256",
          "name": "nftId",
          "type": "uint256"
        },
        {
          "internalType": "address",
          "name": "nftAddress",
          "type": "address"
        },
        {
          "internalType": "uint256",
          "name": "liquidation",
          "type": "uint256"
        },
        {
          "internalType": "uint256",
          "name": "fee",
          "type": "uint256"
        }
      ],
      "name": "createOffer",
      "outputs": [],
      "stateMutability": "nonpayable",
      "type": "function"
    },
    {
      "inputs": [
        {
          "internalType": "uint256",
          "name": "offerId",
          "type": "uint256"
        }
      ],
      "name": "cancelOffer",
      "outputs": [],
      "stateMutability": "nonpayable",
      "type": "function"
    },
    {
      "inputs": [
        {
          "internalType": "uint256",
          "name": "offerId",
          "type": "uint256"
        },
        {
          "internalType": "uint256",
          "name": "collateral",
          "type": "uint256"
        }
      ],
      "name": "acceptOffer",
      "outputs": [],
      "stateMutability": "nonpayable",
      "type": "function"
    },
    {
      "inputs": [
        {
          "internalType": "uint256",
          "name": "offerId",
          "type": "uint256"
        }
      ],
      "name": "repayOffer",
      "outputs": [],
      "stateMutability": "nonpayable",
      "type": "function"
    },
    {
      "inputs": [
        {
          "internalType": "uint256",
          "name": "offerId",
          "type": "uint256"
        },
        {
          "internalType": "uint256",
          "name": "extraCollateral",
          "type": "uint256"
        }
      ],
      "name": "addCollateral",
      "outputs": [],
      "stateMutability": "nonpayable",
      "type": "function"
    },
    {
      "inputs": [
        {
          "internalType": "uint256",
          "name": "offerId",
          "type": "uint256"
        }
      ],
      "name": "liquidate",
      "outputs": [],
      "stateMutability": "nonpayable",
      "type": "function"
    },
    {
      "inputs": [
        {
          "internalType": "address",
          "name": "newPayout",
          "type": "address"
        }
      ],
      "name": "transferPayoutAddress",
      "outputs": [],
      "stateMutability": "nonpayable",
      "type": "function"
    }
  ],
  "bytecode": "0x60806040523480156200001157600080fd5b50604051620049c2380380620049c28339818101604052810190620000379190620002c2565b600160008190555081600560006101000a81548173ffffffffffffffffffffffffffffffffffffffff021916908373ffffffffffffffffffffffffffffffffffffffff16021790555080600660006101000a81548173ffffffffffffffffffffffffffffffffffffffff021916908373ffffffffffffffffffffffffffffffffffffffff160217905550620000d66000801b33620000de60201b60201c565b505062000309565b620000f08282620000f460201b60201c565b5050565b620001068282620001e560201b60201c565b620001e157600180600084815260200190815260200160002060000160008373ffffffffffffffffffffffffffffffffffffffff1673ffffffffffffffffffffffffffffffffffffffff16815260200190815260200160002060006101000a81548160ff021916908315150217905550620001866200025060201b60201c565b73ffffffffffffffffffffffffffffffffffffffff168173ffffffffffffffffffffffffffffffffffffffff16837f2f8788117e7eff1d82e926ec794901d17c78024a50270940304540a733656f0d60405160405180910390a45b5050565b60006001600084815260200190815260200160002060000160008373ffffffffffffffffffffffffffffffffffffffff1673ffffffffffffffffffffffffffffffffffffffff16815260200190815260200160002060009054906101000a900460ff16905092915050565b600033905090565b600080fd5b600073ffffffffffffffffffffffffffffffffffffffff82169050919050565b60006200028a826200025d565b9050919050565b6200029c816200027d565b8114620002a857600080fd5b50565b600081519050620002bc8162000291565b92915050565b60008060408385031215620002dc57620002db62000258565b5b6000620002ec85828601620002ab565b9250506020620002ff85828601620002ab565b9150509250929050565b6146a980620003196000396000f3fe608060405234801561001057600080fd5b50600436106101165760003560e01c806391d14854116100a2578063ae699e2e11610071578063ae699e2e1461030b578063d547741f14610327578063e121e6e514610343578063ee1733e31461035f578063ef706adf1461037b57610116565b806391d1485414610271578063a217fddf146102a1578063a362edc6146102bf578063a8f35adf146102ef57610116565b806336568abe116100e957806336568abe146101c7578063415f1240146101e35780634579268a146101ff57806381257bd5146102375780638486014d1461025357610116565b806301ffc9a71461011b578063150b7a021461014b578063248a9ca31461017b5780632f2ff15d146101ab575b600080fd5b61013560048036038101906101309190612ec0565b610397565b6040516101429190612f08565b60405180910390f35b610165600480360381019061016091906130fd565b610411565b604051610172919061318f565b60405180910390f35b610195600480360381019061019091906131e0565b610425565b6040516101a2919061321c565b60405180910390f35b6101c560048036038101906101c09190613237565b610445565b005b6101e160048036038101906101dc9190613237565b61046e565b005b6101fd60048036038101906101f89190613277565b6104f1565b005b61021960048036038101906102149190613277565b610947565b60405161022e9998979695949392919061334a565b60405180910390f35b610251600480360381019061024c91906133de565b610b8c565b005b61025b611115565b604051610268919061341e565b60405180910390f35b61028b60048036038101906102869190613237565b611126565b6040516102989190612f08565b60405180910390f35b6102a9611191565b6040516102b6919061321c565b60405180910390f35b6102d960048036038101906102d49190613439565b611198565b6040516102e69190613524565b60405180910390f35b610309600480360381019061030491906133de565b61122f565b005b61032560048036038101906103209190613439565b6115c1565b005b610341600480360381019061033c9190613237565b61161b565b005b61035d60048036038101906103589190613277565b611644565b005b61037960048036038101906103749190613546565b611ff4565b005b61039560048036038101906103909190613277565b61245d565b005b60007f7965db0b000000000000000000000000000000000000000000000000000000007bffffffffffffffffffffffffffffffffffffffffffffffffffffffff1916827bffffffffffffffffffffffffffffffffffffffffffffffffffffffff1916148061040a575061040982612880565b5b9050919050565b600063150b7a0260e01b9050949350505050565b600060016000838152602001908152602001600020600101549050919050565b61044e82610425565b61045f8161045a6128ea565b6128f2565b610469838361298f565b505050565b6104766128ea565b73ffffffffffffffffffffffffffffffffffffffff168173ffffffffffffffffffffffffffffffffffffffff16146104e3576040517f08c379a00000000000000000000000000000000000000000000000000000000081526004016104da9061361f565b60405180910390fd5b6104ed8282612a6f565b5050565b60026000541415610537576040517f08c379a000000000000000000000000000000000000000000000000000000000815260040161052e9061368b565b60405180910390fd5b6002600081905550600060026000838152602001908152602001600020600401546201518060026000858152602001908152602001600020600701544261057e91906136da565b610588919061373d565b610592919061376e565b90506040516020016105a39061381f565b60405160208183030381529060405280519060200120600260008481526020019081526020016000206008016040516020016105df9190613929565b6040516020818303038152906040528051906020012014610635576040517f08c379a000000000000000000000000000000000000000000000000000000000815260040161062c9061398c565b60405180910390fd5b60026000838152602001908152602001600020600301548161065791906139ac565b6002600084815260200190815260200160002060060154106106ae576040517f08c379a00000000000000000000000000000000000000000000000000000000081526004016106a590613a4e565b60405180910390fd5b6040518060400160405280600a81526020017f4c6971756964617465640000000000000000000000000000000000000000000081525060026000848152602001908152602001600020600801908051906020019061070d929190612db1565b50600660009054906101000a900473ffffffffffffffffffffffffffffffffffffffff1673ffffffffffffffffffffffffffffffffffffffff1663a9059cbb6002600085815260200190815260200160002060000160009054906101000a900473ffffffffffffffffffffffffffffffffffffffff166064605a60026000888152602001908152602001600020600601546107a8919061376e565b6107b2919061373d565b6040518363ffffffff1660e01b81526004016107cf929190613a6e565b6020604051808303816000875af11580156107ee573d6000803e3d6000fd5b505050506040513d601f19601f820116820180604052508101906108129190613ac3565b50600660009054906101000a900473ffffffffffffffffffffffffffffffffffffffff1673ffffffffffffffffffffffffffffffffffffffff1663a9059cbb600560009054906101000a900473ffffffffffffffffffffffffffffffffffffffff166064600a6002600088815260200190815260200160002060060154610899919061376e565b6108a3919061373d565b6040518363ffffffff1660e01b81526004016108c0929190613a6e565b6020604051808303816000875af11580156108df573d6000803e3d6000fd5b505050506040513d601f19601f820116820180604052508101906109039190613ac3565b507f1ce667ae522f1f380b3262bf7881f17067f07d7f50dc398385709938a9340daf826040516109339190613b3c565b60405180910390a150600160008190555050565b60008060008060008060008060606000600260008c8152602001908152602001600020604051806101200160405290816000820160009054906101000a900473ffffffffffffffffffffffffffffffffffffffff1673ffffffffffffffffffffffffffffffffffffffff1673ffffffffffffffffffffffffffffffffffffffff1681526020016001820160009054906101000a900473ffffffffffffffffffffffffffffffffffffffff1673ffffffffffffffffffffffffffffffffffffffff1673ffffffffffffffffffffffffffffffffffffffff1681526020016002820154815260200160038201548152602001600482015481526020016005820160009054906101000a900473ffffffffffffffffffffffffffffffffffffffff1673ffffffffffffffffffffffffffffffffffffffff1673ffffffffffffffffffffffffffffffffffffffff1681526020016006820154815260200160078201548152602001600882018054610aba90613863565b80601f0160208091040260200160405190810160405280929190818152602001828054610ae690613863565b8015610b335780601f10610b0857610100808354040283529160200191610b33565b820191906000526020600020905b815481529060010190602001808311610b1657829003601f168201915b5050505050815250509050806000015181602001518260400151836060015184608001518560a001518660c001518760e00151886101000151995099509950995099509950995099509950509193959799909294969850565b60026000541415610bd2576040517f08c379a0000000000000000000000000000000000000000000000000000000008152600401610bc99061368b565b60405180910390fd5b60026000819055503373ffffffffffffffffffffffffffffffffffffffff166002600084815260200190815260200160002060000160009054906101000a900473ffffffffffffffffffffffffffffffffffffffff1673ffffffffffffffffffffffffffffffffffffffff161415610c7f576040517f08c379a0000000000000000000000000000000000000000000000000000000008152600401610c7690613bb6565b60405180910390fd5b604051602001610c8e90613c22565b6040516020818303038152906040528051906020012060026000848152602001908152602001600020600801604051602001610cca9190613929565b6040516020818303038152906040528051906020012014610d20576040517f08c379a0000000000000000000000000000000000000000000000000000000008152600401610d1790613c83565b60405180910390fd5b600060186002600085815260200190815260200160002060040154610d45919061373d565b9050806002600085815260200190815260200160002060030154610d6991906139ac565b8211610daa576040517f08c379a0000000000000000000000000000000000000000000000000000000008152600401610da190613d15565b60405180910390fd5b81600660009054906101000a900473ffffffffffffffffffffffffffffffffffffffff1673ffffffffffffffffffffffffffffffffffffffff166370a08231336040518263ffffffff1660e01b8152600401610e069190613d35565b602060405180830381865afa158015610e23573d6000803e3d6000fd5b505050506040513d601f19601f82011682018060405250810190610e479190613d65565b1015610e88576040517f08c379a0000000000000000000000000000000000000000000000000000000008152600401610e7f90613e04565b60405180910390fd5b6040518060400160405280600281526020017f4f6e000000000000000000000000000000000000000000000000000000000000815250600260008581526020019081526020016000206008019080519060200190610ee7929190612db1565b50336002600085815260200190815260200160002060050160006101000a81548173ffffffffffffffffffffffffffffffffffffffff021916908373ffffffffffffffffffffffffffffffffffffffff160217905550816002600085815260200190815260200160002060060181905550426002600085815260200190815260200160002060070181905550600660009054906101000a900473ffffffffffffffffffffffffffffffffffffffff1673ffffffffffffffffffffffffffffffffffffffff166323b872dd3330856040518463ffffffff1660e01b8152600401610fd293929190613e24565b6020604051808303816000875af1158015610ff1573d6000803e3d6000fd5b505050506040513d601f19601f820116820180604052508101906110159190613ac3565b506002600084815260200190815260200160002060010160009054906101000a900473ffffffffffffffffffffffffffffffffffffffff1673ffffffffffffffffffffffffffffffffffffffff166342842e0e303360026000888152602001908152602001600020600201546040518463ffffffff1660e01b815260040161109f93929190613e24565b600060405180830381600087803b1580156110b957600080fd5b505af11580156110cd573d6000803e3d6000fd5b505050507f1ce667ae522f1f380b3262bf7881f17067f07d7f50dc398385709938a9340daf836040516111009190613e7e565b60405180910390a15060016000819055505050565b60006111216004612b51565b905090565b60006001600084815260200190815260200160002060000160008373ffffffffffffffffffffffffffffffffffffffff1673ffffffffffffffffffffffffffffffffffffffff16815260200190815260200160002060009054906101000a900460ff16905092915050565b6000801b81565b6060600360008373ffffffffffffffffffffffffffffffffffffffff1673ffffffffffffffffffffffffffffffffffffffff16815260200190815260200160002080548060200260200160405190810160405280929190818152602001828054801561122357602002820191906000526020600020905b81548152602001906001019080831161120f575b50505050509050919050565b60026000541415611275576040517f08c379a000000000000000000000000000000000000000000000000000000000815260040161126c9061368b565b60405180910390fd5b60026000819055503373ffffffffffffffffffffffffffffffffffffffff166002600084815260200190815260200160002060050160009054906101000a900473ffffffffffffffffffffffffffffffffffffffff1673ffffffffffffffffffffffffffffffffffffffff1614611321576040517f08c379a000000000000000000000000000000000000000000000000000000000815260040161131890613ef8565b60405180910390fd5b6040516020016113309061381f565b604051602081830303815290604052805190602001206002600084815260200190815260200160002060080160405160200161136c9190613929565b60405160208183030381529060405280519060200120146113c2576040517f08c379a00000000000000000000000000000000000000000000000000000000081526004016113b99061398c565b60405180910390fd5b80600660009054906101000a900473ffffffffffffffffffffffffffffffffffffffff1673ffffffffffffffffffffffffffffffffffffffff166370a082316002600086815260200190815260200160002060050160009054906101000a900473ffffffffffffffffffffffffffffffffffffffff166040518263ffffffff1660e01b81526004016114549190613d35565b602060405180830381865afa158015611471573d6000803e3d6000fd5b505050506040513d601f19601f820116820180604052508101906114959190613d65565b10156114d6576040517f08c379a00000000000000000000000000000000000000000000000000000000081526004016114cd90613f8a565b60405180910390fd5b8060026000848152602001908152602001600020600601546114f891906139ac565b6002600084815260200190815260200160002060060181905550600660009054906101000a900473ffffffffffffffffffffffffffffffffffffffff1673ffffffffffffffffffffffffffffffffffffffff166323b872dd3330846040518463ffffffff1660e01b815260040161157193929190613e24565b6020604051808303816000875af1158015611590573d6000803e3d6000fd5b505050506040513d601f19601f820116820180604052508101906115b49190613ac3565b5060016000819055505050565b6000801b6115d6816115d16128ea565b6128f2565b81600560006101000a81548173ffffffffffffffffffffffffffffffffffffffff021916908373ffffffffffffffffffffffffffffffffffffffff1602179055505050565b61162482610425565b611635816116306128ea565b6128f2565b61163f8383612a6f565b505050565b6002600054141561168a576040517f08c379a00000000000000000000000000000000000000000000000000000000081526004016116819061368b565b60405180910390fd5b60026000819055503373ffffffffffffffffffffffffffffffffffffffff166002600083815260200190815260200160002060050160009054906101000a900473ffffffffffffffffffffffffffffffffffffffff1673ffffffffffffffffffffffffffffffffffffffff1614611736576040517f08c379a000000000000000000000000000000000000000000000000000000000815260040161172d9061401c565b60405180910390fd5b6040516020016117459061381f565b60405160208183030381529060405280519060200120600260008381526020019081526020016000206008016040516020016117819190613929565b60405160208183030381529060405280519060200120146117d7576040517f08c379a00000000000000000000000000000000000000000000000000000000081526004016117ce9061398c565b60405180910390fd5b3373ffffffffffffffffffffffffffffffffffffffff166002600083815260200190815260200160002060010160009054906101000a900473ffffffffffffffffffffffffffffffffffffffff1673ffffffffffffffffffffffffffffffffffffffff16636352211e60026000858152602001908152602001600020600201546040518263ffffffff1660e01b8152600401611873919061341e565b602060405180830381865afa158015611890573d6000803e3d6000fd5b505050506040513d601f19601f820116820180604052508101906118b49190614051565b73ffffffffffffffffffffffffffffffffffffffff161461190a576040517f08c379a0000000000000000000000000000000000000000000000000000000008152600401611901906140ca565b60405180910390fd5b6002600082815260200190815260200160002060060154600660009054906101000a900473ffffffffffffffffffffffffffffffffffffffff1673ffffffffffffffffffffffffffffffffffffffff166370a08231306040518263ffffffff1660e01b815260040161197c9190613d35565b602060405180830381865afa158015611999573d6000803e3d6000fd5b505050506040513d601f19601f820116820180604052508101906119bd9190613d65565b10156119fe576040517f08c379a00000000000000000000000000000000000000000000000000000000081526004016119f59061415c565b60405180910390fd5b600060026000838152602001908152602001600020600701541415611a58576040517f08c379a0000000000000000000000000000000000000000000000000000000008152600401611a4f906141c8565b60405180910390fd5b6000610e10600260008481526020019081526020016000206007015442611a7f91906136da565b1015611aaf5760186002600084815260200190815260200160002060040154611aa8919061373d565b9050611b03565b600260008381526020019081526020016000206004015462015180600260008581526020019081526020016000206007015442611aec91906136da565b611af6919061373d565b611b00919061376e565b90505b600260008381526020019081526020016000206003015481611b2591906139ac565b600260008481526020019081526020016000206006015411611b7c576040517f08c379a0000000000000000000000000000000000000000000000000000000008152600401611b7390614234565b60405180910390fd5b6002600083815260200190815260200160002060010160009054906101000a900473ffffffffffffffffffffffffffffffffffffffff1673ffffffffffffffffffffffffffffffffffffffff166342842e0e333060026000878152602001908152602001600020600201546040518463ffffffff1660e01b8152600401611c0593929190613e24565b600060405180830381600087803b158015611c1f57600080fd5b505af1158015611c33573d6000803e3d6000fd5b50505050600660009054906101000a900473ffffffffffffffffffffffffffffffffffffffff1673ffffffffffffffffffffffffffffffffffffffff1663a9059cbb6002600085815260200190815260200160002060000160009054906101000a900473ffffffffffffffffffffffffffffffffffffffff166064606085611cbb919061376e565b611cc5919061373d565b6040518363ffffffff1660e01b8152600401611ce2929190613a6e565b6020604051808303816000875af1158015611d01573d6000803e3d6000fd5b505050506040513d601f19601f82011682018060405250810190611d259190613ac3565b50600660009054906101000a900473ffffffffffffffffffffffffffffffffffffffff1673ffffffffffffffffffffffffffffffffffffffff1663a9059cbb600560009054906101000a900473ffffffffffffffffffffffffffffffffffffffff166064600485611d96919061376e565b611da0919061373d565b6040518363ffffffff1660e01b8152600401611dbd929190613a6e565b6020604051808303816000875af1158015611ddc573d6000803e3d6000fd5b505050506040513d601f19601f82011682018060405250810190611e009190613ac3565b50600660009054906101000a900473ffffffffffffffffffffffffffffffffffffffff1673ffffffffffffffffffffffffffffffffffffffff1663a9059cbb33836002600087815260200190815260200160002060060154611e6291906136da565b6040518363ffffffff1660e01b8152600401611e7f929190613a6e565b6020604051808303816000875af1158015611e9e573d6000803e3d6000fd5b505050506040513d601f19601f82011682018060405250810190611ec29190613ac3565b5060006002600084815260200190815260200160002060050160006101000a81548173ffffffffffffffffffffffffffffffffffffffff021916908373ffffffffffffffffffffffffffffffffffffffff16021790555060006002600084815260200190815260200160002060060181905550600060026000848152602001908152602001600020600701819055506040518060400160405280600481526020017f4f70656e00000000000000000000000000000000000000000000000000000000815250600260008481526020019081526020016000206008019080519060200190611fb0929190612db1565b507f1ce667ae522f1f380b3262bf7881f17067f07d7f50dc398385709938a9340daf82604051611fe09190614277565b60405180910390a150600160008190555050565b6002600054141561203a576040517f08c379a00000000000000000000000000000000000000000000000000000000081526004016120319061368b565b60405180910390fd5b60026000819055503373ffffffffffffffffffffffffffffffffffffffff168373ffffffffffffffffffffffffffffffffffffffff16636352211e866040518263ffffffff1660e01b8152600401612092919061341e565b602060405180830381865afa1580156120af573d6000803e3d6000fd5b505050506040513d601f19601f820116820180604052508101906120d39190614051565b73ffffffffffffffffffffffffffffffffffffffff1614612129576040517f08c379a0000000000000000000000000000000000000000000000000000000008152600401612120906142f1565b60405180910390fd5b8273ffffffffffffffffffffffffffffffffffffffff166342842e0e3330876040518463ffffffff1660e01b815260040161216693929190613e24565b600060405180830381600087803b15801561218057600080fd5b505af1158015612194573d6000803e3d6000fd5b505050506121a26004612b5f565b6040518061012001604052803373ffffffffffffffffffffffffffffffffffffffff1681526020018473ffffffffffffffffffffffffffffffffffffffff168152602001858152602001838152602001828152602001600073ffffffffffffffffffffffffffffffffffffffff16815260200160008152602001600081526020016040518060400160405280600481526020017f4f70656e000000000000000000000000000000000000000000000000000000008152508152506002600061226a6004612b51565b815260200190815260200160002060008201518160000160006101000a81548173ffffffffffffffffffffffffffffffffffffffff021916908373ffffffffffffffffffffffffffffffffffffffff16021790555060208201518160010160006101000a81548173ffffffffffffffffffffffffffffffffffffffff021916908373ffffffffffffffffffffffffffffffffffffffff16021790555060408201518160020155606082015181600301556080820151816004015560a08201518160050160006101000a81548173ffffffffffffffffffffffffffffffffffffffff021916908373ffffffffffffffffffffffffffffffffffffffff16021790555060c0820151816006015560e0820151816007015561010082015181600801908051906020019061239c929190612db1565b50905050600360003373ffffffffffffffffffffffffffffffffffffffff1673ffffffffffffffffffffffffffffffffffffffff1681526020019081526020016000206123e96004612b51565b90806001815401808255809150506001900390600052602060002001600090919091909150557f1ce667ae522f1f380b3262bf7881f17067f07d7f50dc398385709938a9340daf61243a6004612b51565b6040516124479190614277565b60405180910390a1600160008190555050505050565b600260005414156124a3576040517f08c379a000000000000000000000000000000000000000000000000000000000815260040161249a9061368b565b60405180910390fd5b60026000819055503373ffffffffffffffffffffffffffffffffffffffff166002600083815260200190815260200160002060000160009054906101000a900473ffffffffffffffffffffffffffffffffffffffff1673ffffffffffffffffffffffffffffffffffffffff161461254f576040517f08c379a00000000000000000000000000000000000000000000000000000000081526004016125469061435d565b60405180910390fd5b3073ffffffffffffffffffffffffffffffffffffffff166002600083815260200190815260200160002060010160009054906101000a900473ffffffffffffffffffffffffffffffffffffffff1673ffffffffffffffffffffffffffffffffffffffff16636352211e60026000858152602001908152602001600020600201546040518263ffffffff1660e01b81526004016125eb919061341e565b602060405180830381865afa158015612608573d6000803e3d6000fd5b505050506040513d601f19601f8201168201806040525081019061262c9190614051565b73ffffffffffffffffffffffffffffffffffffffff1614612682576040517f08c379a0000000000000000000000000000000000000000000000000000000008152600401612679906143ef565b60405180910390fd5b60405160200161269190613c22565b60405160208183030381529060405280519060200120600260008381526020019081526020016000206008016040516020016126cd9190613929565b6040516020818303038152906040528051906020012014612723576040517f08c379a000000000000000000000000000000000000000000000000000000000815260040161271a90613c83565b60405180910390fd5b6040518060400160405280600981526020017f43616e63656c6c65640000000000000000000000000000000000000000000000815250600260008381526020019081526020016000206008019080519060200190612782929190612db1565b506002600082815260200190815260200160002060010160009054906101000a900473ffffffffffffffffffffffffffffffffffffffff1673ffffffffffffffffffffffffffffffffffffffff166342842e0e303360026000868152602001908152602001600020600201546040518463ffffffff1660e01b815260040161280c93929190613e24565b600060405180830381600087803b15801561282657600080fd5b505af115801561283a573d6000803e3d6000fd5b505050507f1ce667ae522f1f380b3262bf7881f17067f07d7f50dc398385709938a9340daf8160405161286d919061445b565b60405180910390a1600160008190555050565b60007f01ffc9a7000000000000000000000000000000000000000000000000000000007bffffffffffffffffffffffffffffffffffffffffffffffffffffffff1916827bffffffffffffffffffffffffffffffffffffffffffffffffffffffff1916149050919050565b600033905090565b6128fc8282611126565b61298b576129218173ffffffffffffffffffffffffffffffffffffffff166014612b75565b61292f8360001c6020612b75565b604051602001612940929190614552565b6040516020818303038152906040526040517f08c379a0000000000000000000000000000000000000000000000000000000008152600401612982919061458c565b60405180910390fd5b5050565b6129998282611126565b612a6b57600180600084815260200190815260200160002060000160008373ffffffffffffffffffffffffffffffffffffffff1673ffffffffffffffffffffffffffffffffffffffff16815260200190815260200160002060006101000a81548160ff021916908315150217905550612a106128ea565b73ffffffffffffffffffffffffffffffffffffffff168173ffffffffffffffffffffffffffffffffffffffff16837f2f8788117e7eff1d82e926ec794901d17c78024a50270940304540a733656f0d60405160405180910390a45b5050565b612a798282611126565b15612b4d5760006001600084815260200190815260200160002060000160008373ffffffffffffffffffffffffffffffffffffffff1673ffffffffffffffffffffffffffffffffffffffff16815260200190815260200160002060006101000a81548160ff021916908315150217905550612af26128ea565b73ffffffffffffffffffffffffffffffffffffffff168173ffffffffffffffffffffffffffffffffffffffff16837ff6391f5c32d9c69d2a47ea670b442974b53935d1edc7fd64eb21e047a839171b60405160405180910390a45b5050565b600081600001549050919050565b6001816000016000828254019250508190555050565b606060006002836002612b88919061376e565b612b9291906139ac565b67ffffffffffffffff811115612bab57612baa612fd2565b5b6040519080825280601f01601f191660200182016040528015612bdd5781602001600182028036833780820191505090505b5090507f300000000000000000000000000000000000000000000000000000000000000081600081518110612c1557612c146145ae565b5b60200101907effffffffffffffffffffffffffffffffffffffffffffffffffffffffffffff1916908160001a9053507f780000000000000000000000000000000000000000000000000000000000000081600181518110612c7957612c786145ae565b5b60200101907effffffffffffffffffffffffffffffffffffffffffffffffffffffffffffff1916908160001a90535060006001846002612cb9919061376e565b612cc391906139ac565b90505b6001811115612d63577f3031323334353637383961626364656600000000000000000000000000000000600f861660108110612d0557612d046145ae565b5b1a60f81b828281518110612d1c57612d1b6145ae565b5b60200101907effffffffffffffffffffffffffffffffffffffffffffffffffffffffffffff1916908160001a905350600485901c945080612d5c906145dd565b9050612cc6565b5060008414612da7576040517f08c379a0000000000000000000000000000000000000000000000000000000008152600401612d9e90614653565b60405180910390fd5b8091505092915050565b828054612dbd90613863565b90600052602060002090601f016020900481019282612ddf5760008555612e26565b82601f10612df857805160ff1916838001178555612e26565b82800160010185558215612e26579182015b82811115612e25578251825591602001919060010190612e0a565b5b509050612e339190612e37565b5090565b5b80821115612e50576000816000905550600101612e38565b5090565b6000604051905090565b600080fd5b600080fd5b60007fffffffff0000000000000000000000000000000000000000000000000000000082169050919050565b612e9d81612e68565b8114612ea857600080fd5b50565b600081359050612eba81612e94565b92915050565b600060208284031215612ed657612ed5612e5e565b5b6000612ee484828501612eab565b91505092915050565b60008115159050919050565b612f0281612eed565b82525050565b6000602082019050612f1d6000830184612ef9565b92915050565b600073ffffffffffffffffffffffffffffffffffffffff82169050919050565b6000612f4e82612f23565b9050919050565b612f5e81612f43565b8114612f6957600080fd5b50565b600081359050612f7b81612f55565b92915050565b6000819050919050565b612f9481612f81565b8114612f9f57600080fd5b50565b600081359050612fb181612f8b565b92915050565b600080fd5b600080fd5b6000601f19601f8301169050919050565b7f4e487b7100000000000000000000000000000000000000000000000000000000600052604160045260246000fd5b61300a82612fc1565b810181811067ffffffffffffffff8211171561302957613028612fd2565b5b80604052505050565b600061303c612e54565b90506130488282613001565b919050565b600067ffffffffffffffff82111561306857613067612fd2565b5b61307182612fc1565b9050602081019050919050565b82818337600083830152505050565b60006130a061309b8461304d565b613032565b9050828152602081018484840111156130bc576130bb612fbc565b5b6130c784828561307e565b509392505050565b600082601f8301126130e4576130e3612fb7565b5b81356130f484826020860161308d565b91505092915050565b6000806000806080858703121561311757613116612e5e565b5b600061312587828801612f6c565b945050602061313687828801612f6c565b935050604061314787828801612fa2565b925050606085013567ffffffffffffffff81111561316857613167612e63565b5b613174878288016130cf565b91505092959194509250565b61318981612e68565b82525050565b60006020820190506131a46000830184613180565b92915050565b6000819050919050565b6131bd816131aa565b81146131c857600080fd5b50565b6000813590506131da816131b4565b92915050565b6000602082840312156131f6576131f5612e5e565b5b6000613204848285016131cb565b91505092915050565b613216816131aa565b82525050565b6000602082019050613231600083018461320d565b92915050565b6000806040838503121561324e5761324d612e5e565b5b600061325c858286016131cb565b925050602061326d85828601612f6c565b9150509250929050565b60006020828403121561328d5761328c612e5e565b5b600061329b84828501612fa2565b91505092915050565b6132ad81612f43565b82525050565b6132bc81612f81565b82525050565b600081519050919050565b600082825260208201905092915050565b60005b838110156132fc5780820151818401526020810190506132e1565b8381111561330b576000848401525b50505050565b600061331c826132c2565b61332681856132cd565b93506133368185602086016132de565b61333f81612fc1565b840191505092915050565b600061012082019050613360600083018c6132a4565b61336d602083018b6132a4565b61337a604083018a6132b3565b61338760608301896132b3565b61339460808301886132b3565b6133a160a08301876132a4565b6133ae60c08301866132b3565b6133bb60e08301856132b3565b8181036101008301526133ce8184613311565b90509a9950505050505050505050565b600080604083850312156133f5576133f4612e5e565b5b600061340385828601612fa2565b925050602061341485828601612fa2565b9150509250929050565b600060208201905061343360008301846132b3565b92915050565b60006020828403121561344f5761344e612e5e565b5b600061345d84828501612f6c565b91505092915050565b600081519050919050565b600082825260208201905092915050565b6000819050602082019050919050565b61349b81612f81565b82525050565b60006134ad8383613492565b60208301905092915050565b6000602082019050919050565b60006134d182613466565b6134db8185613471565b93506134e683613482565b8060005b838110156135175781516134fe88826134a1565b9750613509836134b9565b9250506001810190506134ea565b5085935050505092915050565b6000602082019050818103600083015261353e81846134c6565b905092915050565b600080600080608085870312156135605761355f612e5e565b5b600061356e87828801612fa2565b945050602061357f87828801612f6c565b935050604061359087828801612fa2565b92505060606135a187828801612fa2565b91505092959194509250565b7f416363657373436f6e74726f6c3a2063616e206f6e6c792072656e6f756e636560008201527f20726f6c657320666f722073656c660000000000000000000000000000000000602082015250565b6000613609602f836132cd565b9150613614826135ad565b604082019050919050565b60006020820190508181036000830152613638816135fc565b9050919050565b7f5265656e7472616e637947756172643a207265656e7472616e742063616c6c00600082015250565b6000613675601f836132cd565b91506136808261363f565b602082019050919050565b600060208201905081810360008301526136a481613668565b9050919050565b7f4e487b7100000000000000000000000000000000000000000000000000000000600052601160045260246000fd5b60006136e582612f81565b91506136f083612f81565b925082821015613703576137026136ab565b5b828203905092915050565b7f4e487b7100000000000000000000000000000000000000000000000000000000600052601260045260246000fd5b600061374882612f81565b915061375383612f81565b9250826137635761376261370e565b5b828204905092915050565b600061377982612f81565b915061378483612f81565b9250817fffffffffffffffffffffffffffffffffffffffffffffffffffffffffffffffff04831182151516156137bd576137bc6136ab565b5b828202905092915050565b600081905092915050565b7f4f6e000000000000000000000000000000000000000000000000000000000000600082015250565b60006138096002836137c8565b9150613814826137d3565b600282019050919050565b600061382a826137fc565b9150819050919050565b7f4e487b7100000000000000000000000000000000000000000000000000000000600052602260045260246000fd5b6000600282049050600182168061387b57607f821691505b6020821081141561388f5761388e613834565b5b50919050565b60008190508160005260206000209050919050565b600081546138b781613863565b6138c181866137c8565b945060018216600081146138dc57600181146138ed57613920565b60ff19831686528186019350613920565b6138f685613895565b60005b83811015613918578154818901526001820191506020810190506138f9565b838801955050505b50505092915050565b600061393582846138aa565b915081905092915050565b7f4f66666572206973206e6f74204f6e0000000000000000000000000000000000600082015250565b6000613976600f836132cd565b915061398182613940565b602082019050919050565b600060208201905081810360008301526139a581613969565b9050919050565b60006139b782612f81565b91506139c283612f81565b9250827fffffffffffffffffffffffffffffffffffffffffffffffffffffffffffffffff038211156139f7576139f66136ab565b5b828201905092915050565b7f426f72726f776572206973206e6f74204c697175696461746564000000000000600082015250565b6000613a38601a836132cd565b9150613a4382613a02565b602082019050919050565b60006020820190508181036000830152613a6781613a2b565b9050919050565b6000604082019050613a8360008301856132a4565b613a9060208301846132b3565b9392505050565b613aa081612eed565b8114613aab57600080fd5b50565b600081519050613abd81613a97565b92915050565b600060208284031215613ad957613ad8612e5e565b5b6000613ae784828501613aae565b91505092915050565b7f4c69717569646174656400000000000000000000000000000000000000000000600082015250565b6000613b26600a836132cd565b9150613b3182613af0565b602082019050919050565b6000604082019050613b5160008301846132b3565b8181036020830152613b6281613b19565b905092915050565b7f43616e206e6f742061636365707420796f7572206f776e204f66666572000000600082015250565b6000613ba0601d836132cd565b9150613bab82613b6a565b602082019050919050565b60006020820190508181036000830152613bcf81613b93565b9050919050565b7f4f70656e00000000000000000000000000000000000000000000000000000000600082015250565b6000613c0c6004836137c8565b9150613c1782613bd6565b600482019050919050565b6000613c2d82613bff565b9150819050919050565b7f4f66666572206973206e6f74204f70656e000000000000000000000000000000600082015250565b6000613c6d6011836132cd565b9150613c7882613c37565b602082019050919050565b60006020820190508181036000830152613c9c81613c60565b9050919050565b7f4e6f7420656e6f75676820636f6c6c61746572616c20746f20626f72726f772060008201527f666f72206d6f7265207468616e20616e20686f75720000000000000000000000602082015250565b6000613cff6035836132cd565b9150613d0a82613ca3565b604082019050919050565b60006020820190508181036000830152613d2e81613cf2565b9050919050565b6000602082019050613d4a60008301846132a4565b92915050565b600081519050613d5f81612f8b565b92915050565b600060208284031215613d7b57613d7a612e5e565b5b6000613d8984828501613d50565b91505092915050565b7f4e6f7420656e6f7567682062616c616e636520746f207061792074686520636f60008201527f6c6c61746572616c000000000000000000000000000000000000000000000000602082015250565b6000613dee6028836132cd565b9150613df982613d92565b604082019050919050565b60006020820190508181036000830152613e1d81613de1565b9050919050565b6000606082019050613e3960008301866132a4565b613e4660208301856132a4565b613e5360408301846132b3565b949350505050565b6000613e686002836132cd565b9150613e73826137d3565b602082019050919050565b6000604082019050613e9360008301846132b3565b8181036020830152613ea481613e5b565b905092915050565b7f4f6e6c7920626f72726f7765722063616e2061646420636f6c6c61746572616c600082015250565b6000613ee26020836132cd565b9150613eed82613eac565b602082019050919050565b60006020820190508181036000830152613f1181613ed5565b9050919050565b7f426f72726f77657220646f6573206e6f74206861766520656e6f75676820746f60008201527f207061792074686520657874726120636f6c6c61746572616c00000000000000602082015250565b6000613f746039836132cd565b9150613f7f82613f18565b604082019050919050565b60006020820190508181036000830152613fa381613f67565b9050919050565b7f4f6e6c7920626f72726f7765722063616e20726570617920746865204f66666560008201527f7200000000000000000000000000000000000000000000000000000000000000602082015250565b60006140066021836132cd565b915061401182613faa565b604082019050919050565b6000602082019050818103600083015261403581613ff9565b9050919050565b60008151905061404b81612f55565b92915050565b60006020828403121561406757614066612e5e565b5b60006140758482850161403c565b91505092915050565b7f426f72726f776572206973206e6f74206f776e6572206f6620746865204e4654600082015250565b60006140b46020836132cd565b91506140bf8261407e565b602082019050919050565b600060208201905081810360008301526140e3816140a7565b9050919050565b7f50726f746f636f6c20646f6573206e6f74206861766520656e6f75676820746f60008201527f207061792074686520636f6c6c61746572616c00000000000000000000000000602082015250565b60006141466033836132cd565b9150614151826140ea565b604082019050919050565b6000602082019050818103600083015261417581614139565b9050919050565b7f4163636570742074696d65203d20300000000000000000000000000000000000600082015250565b60006141b2600f836132cd565b91506141bd8261417c565b602082019050919050565b600060208201905081810360008301526141e1816141a5565b9050919050565b7f426f72726f7765722063616e206265204c697175696461746564000000000000600082015250565b600061421e601a836132cd565b9150614229826141e8565b602082019050919050565b6000602082019050818103600083015261424d81614211565b9050919050565b60006142616004836132cd565b915061426c82613bd6565b602082019050919050565b600060408201905061428c60008301846132b3565b818103602083015261429d81614254565b905092915050565b7f4e6f7420746865206f776e6572206f6620746865204e46540000000000000000600082015250565b60006142db6018836132cd565b91506142e6826142a5565b602082019050919050565b6000602082019050818103600083015261430a816142ce565b9050919050565b7f4e6f7420746865206f776e6572206f6620746865204f66666572000000000000600082015250565b6000614347601a836132cd565b915061435282614311565b602082019050919050565b600060208201905081810360008301526143768161433a565b9050919050565b7f5468652050726f746f636f6c20646f6573206e6f74206861766520746865204e60008201527f4654000000000000000000000000000000000000000000000000000000000000602082015250565b60006143d96022836132cd565b91506143e48261437d565b604082019050919050565b60006020820190508181036000830152614408816143cc565b9050919050565b7f43616e63656c6c65640000000000000000000000000000000000000000000000600082015250565b60006144456009836132cd565b91506144508261440f565b602082019050919050565b600060408201905061447060008301846132b3565b818103602083015261448181614438565b905092915050565b7f416363657373436f6e74726f6c3a206163636f756e7420000000000000000000600082015250565b60006144bf6017836137c8565b91506144ca82614489565b601782019050919050565b60006144e0826132c2565b6144ea81856137c8565b93506144fa8185602086016132de565b80840191505092915050565b7f206973206d697373696e6720726f6c6520000000000000000000000000000000600082015250565b600061453c6011836137c8565b915061454782614506565b601182019050919050565b600061455d826144b2565b915061456982856144d5565b91506145748261452f565b915061458082846144d5565b91508190509392505050565b600060208201905081810360008301526145a68184613311565b905092915050565b7f4e487b7100000000000000000000000000000000000000000000000000000000600052603260045260246000fd5b60006145e882612f81565b915060008214156145fc576145fb6136ab565b5b600182039050919050565b7f537472696e67733a20686578206c656e67746820696e73756666696369656e74600082015250565b600061463d6020836132cd565b915061464882614607565b602082019050919050565b6000602082019050818103600083015261466c81614630565b905091905056fea26469706673582212202c8efe5fe263e4ee9161a14c3346a594a867f86b1f1790d1122ec9326d3ee69c64736f6c634300080c0033",
  "immutableReferences": {},
  "source": "// SPDX-License-Identifier: UNLICENSED\r\n\r\npragma solidity ^0.8.3;\r\n\r\nimport \"../node_modules/@openzeppelin/contracts/utils/Counters.sol\";\r\nimport \"../node_modules/@openzeppelin/contracts/token/ERC20/IERC20.sol\";\r\nimport \"../node_modules/@openzeppelin/contracts/token/ERC721/IERC721.sol\";\r\n\r\nimport \"../node_modules/@openzeppelin/contracts/token/ERC721/utils/ERC721Holder.sol\";\r\nimport \"../node_modules/@openzeppelin/contracts/security/ReentrancyGuard.sol\";\r\nimport \"../node_modules/@openzeppelin/contracts/access/AccessControl.sol\";\r\n\r\n\r\n/**\r\n * @title ERC721Lending\r\n * @notice ERC721 Lending plataform where users that provide the ERC721 token\r\n * set a liquidation limit and fee, and users that borrow the ERC721 token\r\n * set how much collateral they add to the transaction\r\n */\r\ncontract ERC721Lending is ERC721Holder, ReentrancyGuard, AccessControl {\r\n\r\n    event OfferStatusChange(uint256 offerId, string status);\r\n\r\n    struct Offer {\r\n        address owner;\r\n        address nft;\r\n        uint256 nftId;\r\n        uint256 liquidation;\r\n        uint256 dailyFee;\r\n        address borrower;\r\n        uint256 collateral;\r\n        uint256 acceptTime;\r\n        string status; // Open, On, Cancelled, Liquidated\r\n    }\r\n\r\n    mapping(uint256 => Offer) offers;\r\n    mapping(address => uint256[]) addressToOffers;\r\n\r\n    using Counters for Counters.Counter;\r\n    Counters.Counter private offerCounter;\r\n\r\n    address PayoutAddress;\r\n    IERC20 token;\r\n\r\n    constructor(address Payout, address TokenAddress) {\r\n        PayoutAddress = Payout;\r\n        token = IERC20(TokenAddress);\r\n        _setupRole(DEFAULT_ADMIN_ROLE, msg.sender);\r\n    }\r\n\r\n    /**\r\n     * @dev Returns the details for a offer.\r\n     * @param offerId The id of the offer.\r\n     */\r\n    function getOffer(uint256 offerId) external view returns (address, address, uint256, uint256, uint256, address, uint256, uint256, string memory) {\r\n        Offer memory offer = offers[offerId];\r\n        return (offer.owner, offer.nft, offer.nftId, offer.liquidation, offer.dailyFee, offer.borrower, offer.collateral, offer.acceptTime, offer.status);\r\n    }\r\n\r\n    /**\r\n     * @dev Returns all offers of an address.\r\n     * @param addr the address to lookup.\r\n     */\r\n    function getOffersOfAddress(address addr) external view returns (uint256[] memory) {\r\n        return addressToOffers[addr];\r\n    }\r\n\r\n    /**\r\n     * @dev Returns the number of offers made.\r\n     */\r\n    function getOfferQuantities() external view returns (uint256) {\r\n        return offerCounter.current();\r\n    }\r\n\r\n    /**\r\n     * @dev Opens a new Offer, and sends the nft to an escrow.\r\n     * @param nftId id of the nft to offer.\r\n     * @param nftAddress address of the nft to offer.\r\n     * @param liquidation if the amount of liquidation+accumulatedFee is bigger than the collateral, the borrower is liquidated.\r\n     * @param fee fee amount that accumulates every 24 hours.\r\n     */\r\n    function createOffer(uint256 nftId, address nftAddress, uint256 liquidation, uint256 fee) external nonReentrant() {\r\n        require(IERC721(nftAddress).ownerOf(nftId) == msg.sender, \"Not the owner of the NFT\");\r\n        IERC721(nftAddress).safeTransferFrom(msg.sender, address(this), nftId);\r\n\r\n        offerCounter.increment();\r\n        offers[offerCounter.current()] = Offer(msg.sender, nftAddress, nftId, liquidation, fee, address(0), 0, 0, \"Open\");\r\n        addressToOffers[msg.sender].push(offerCounter.current());\r\n        emit OfferStatusChange(offerCounter.current(), \"Open\");\r\n    }\r\n\r\n    /**\r\n     * @dev Cancels open offer and returns the nft to the owner.\r\n     * @param offerId if of the offer.\r\n     */\r\n    function cancelOffer(uint256 offerId) external nonReentrant() {\r\n        require(offers[offerId].owner == msg.sender, \"Not the owner of the Offer\");\r\n        require(IERC721(offers[offerId].nft).ownerOf(offers[offerId].nftId) == address(this), \"The Protocol does not have the NFT\");\r\n        require(keccak256(abi.encodePacked(offers[offerId].status)) == keccak256(abi.encodePacked(\"Open\")), \"Offer is not Open\");\r\n\r\n        offers[offerId].status = \"Cancelled\";\r\n        IERC721(offers[offerId].nft).safeTransferFrom(address(this), msg.sender, offers[offerId].nftId);\r\n        emit OfferStatusChange(offerId, \"Cancelled\");\r\n    }\r\n\r\n    /**\r\n     * @dev Accepts an Open offer, escrows the collateral on the contract and sends the nft to the borrower.\r\n     * @param offerId if of the offer.\r\n     * @param collateral how much collateral the borrowers wants to add to the offer.\r\n     */\r\n    function acceptOffer(uint256 offerId, uint256 collateral) external nonReentrant() {\r\n        require(offers[offerId].owner != msg.sender, \"Can not accept your own Offer\");\r\n        require(keccak256(abi.encodePacked(offers[offerId].status)) == keccak256(abi.encodePacked(\"Open\")), \"Offer is not Open\");\r\n        uint256 minimumFee = offers[offerId].dailyFee/24;\r\n        require(collateral > offers[offerId].liquidation + minimumFee, \"Not enough collateral to borrow for more than an hour\");\r\n        require(token.balanceOf(msg.sender) >= collateral, \"Not enough balance to pay the collateral\");\r\n\r\n        offers[offerId].status = \"On\";\r\n        offers[offerId].borrower = msg.sender;\r\n        offers[offerId].collateral = collateral;\r\n        offers[offerId].acceptTime = block.timestamp;\r\n        token.transferFrom(msg.sender, address(this), collateral);\r\n        IERC721(offers[offerId].nft).safeTransferFrom(address(this), msg.sender, offers[offerId].nftId);\r\n        emit OfferStatusChange(offerId, \"On\");\r\n    }\r\n\r\n    /**\r\n     * @dev checks if borrower is liquidated or not, then transfers the nft to the contract, \r\n     * pays the lender, pays the protocol and finally returns the rest of the collateral to the borrower\r\n     * @param offerId if of the offer.\r\n     */\r\n    function repayOffer(uint256 offerId) external nonReentrant() {\r\n        require(offers[offerId].borrower == msg.sender, \"Only borrower can repay the Offer\");\r\n        require(keccak256(abi.encodePacked(offers[offerId].status)) == keccak256(abi.encodePacked(\"On\")), \"Offer is not On\");\r\n        require(IERC721(offers[offerId].nft).ownerOf(offers[offerId].nftId) == msg.sender, \"Borrower is not owner of the NFT\");\r\n        require(token.balanceOf(address(this)) >= offers[offerId].collateral, \"Protocol does not have enough to pay the collateral\");\r\n        require(offers[offerId].acceptTime != 0, \"Accept time = 0\");\r\n        uint256 feeToPay;\r\n        //minimum Fee is at least 1 hour\r\n        if ((block.timestamp - offers[offerId].acceptTime) < 60*60) {\r\n            feeToPay = offers[offerId].dailyFee/24;\r\n        } else {\r\n            feeToPay = ((block.timestamp - offers[offerId].acceptTime)/(60*60*24))*offers[offerId].dailyFee;\r\n        }\r\n        // User is not liquidated\r\n        require(offers[offerId].collateral > (feeToPay + offers[offerId].liquidation), \"Borrower can be Liquidated\");\r\n\r\n        IERC721(offers[offerId].nft).safeTransferFrom(msg.sender, address(this), offers[offerId].nftId);\r\n        token.transfer(offers[offerId].owner, feeToPay*96/100);\r\n        token.transfer(PayoutAddress, feeToPay*4/100);\r\n        token.transfer(msg.sender, (offers[offerId].collateral - feeToPay));\r\n\r\n        offers[offerId].borrower = address(0);\r\n        offers[offerId].collateral = 0;\r\n        offers[offerId].acceptTime = 0;\r\n        offers[offerId].status = \"Open\";\r\n        emit OfferStatusChange(offerId, \"Open\");\r\n    }\r\n\r\n    /**\r\n     * @dev Adds extra collateral to the position of the borrower.\r\n     * @param offerId if of the offer.\r\n     * @param extraCollateral how much extra collateral the borrowers wants to add to the offer.\r\n     */\r\n    function addCollateral(uint256 offerId, uint256 extraCollateral) external nonReentrant() {\r\n        require(offers[offerId].borrower == msg.sender, \"Only borrower can add collateral\");\r\n        require(keccak256(abi.encodePacked(offers[offerId].status)) == keccak256(abi.encodePacked(\"On\")), \"Offer is not On\");\r\n        require(token.balanceOf(offers[offerId].borrower) >= extraCollateral, \"Borrower does not have enough to pay the extra collateral\");\r\n\r\n        offers[offerId].collateral = offers[offerId].collateral + extraCollateral;\r\n        token.transferFrom(msg.sender, address(this), extraCollateral);\r\n    }\r\n\r\n    /**\r\n     * @dev Liquidates the borrower if he owns more than he has collateral.\r\n     * @param offerId if of the offer.\r\n     */\r\n    function liquidate(uint256 offerId) external nonReentrant() {\r\n        uint256 feeToPay = ((block.timestamp - offers[offerId].acceptTime)/(60*60*24))*offers[offerId].dailyFee;\r\n        require(keccak256(abi.encodePacked(offers[offerId].status)) == keccak256(abi.encodePacked(\"On\")), \"Offer is not On\");\r\n        require(offers[offerId].collateral < (feeToPay + offers[offerId].liquidation), \"Borrower is not Liquidated\");\r\n\r\n        offers[offerId].status = \"Liquidated\";\r\n        token.transfer(offers[offerId].owner, offers[offerId].collateral*90/100);\r\n        token.transfer(PayoutAddress, offers[offerId].collateral*10/100);\r\n        emit OfferStatusChange(offerId, \"Liquidated\");\r\n    }\r\n\r\n    /**\r\n     * @dev Changes account to send payout.\r\n     * @param newPayout new address to send payout.\r\n     */\r\n    function transferPayoutAddress(address newPayout) external onlyRole(DEFAULT_ADMIN_ROLE) {\r\n        PayoutAddress = newPayout;\r\n    }\r\n\r\n}",
  "sourcePath": "C:\\Users\\jtsch\\OneDrive\\Escritorio\\DFK-Lending\\DFK-Lending-SmartContracts\\contracts\\ERC721Lending.sol",
  "compiler": {
    "name": "solc",
    "version": "0.8.12+commit.f00d7308.Emscripten.clang"
  },
  "schemaVersion": "3.4.3",
  "updatedAt": "2022-02-19T19:49:41.258Z",
  "networkType": "ethereum",
  "devdoc": {
    "kind": "dev",
    "methods": {
      "acceptOffer(uint256,uint256)": {
        "details": "Accepts an Open offer, escrows the collateral on the contract and sends the nft to the borrower.",
        "params": {
          "collateral": "how much collateral the borrowers wants to add to the offer.",
          "offerId": "if of the offer."
        }
      },
      "addCollateral(uint256,uint256)": {
        "details": "Adds extra collateral to the position of the borrower.",
        "params": {
          "extraCollateral": "how much extra collateral the borrowers wants to add to the offer.",
          "offerId": "if of the offer."
        }
      },
      "cancelOffer(uint256)": {
        "details": "Cancels open offer and returns the nft to the owner.",
        "params": {
          "offerId": "if of the offer."
        }
      },
      "createOffer(uint256,address,uint256,uint256)": {
        "details": "Opens a new Offer, and sends the nft to an escrow.",
        "params": {
          "fee": "fee amount that accumulates every 24 hours.",
          "liquidation": "if the amount of liquidation+accumulatedFee is bigger than the collateral, the borrower is liquidated.",
          "nftAddress": "address of the nft to offer.",
          "nftId": "id of the nft to offer."
        }
      },
      "getOffer(uint256)": {
        "details": "Returns the details for a offer.",
        "params": {
          "offerId": "The id of the offer."
        }
      },
      "getOfferQuantities()": {
        "details": "Returns the number of offers made."
      },
      "getOffersOfAddress(address)": {
        "details": "Returns all offers of an address.",
        "params": {
          "addr": "the address to lookup."
        }
      },
      "getRoleAdmin(bytes32)": {
        "details": "Returns the admin role that controls `role`. See {grantRole} and {revokeRole}. To change a role's admin, use {_setRoleAdmin}."
      },
      "grantRole(bytes32,address)": {
        "details": "Grants `role` to `account`. If `account` had not been already granted `role`, emits a {RoleGranted} event. Requirements: - the caller must have ``role``'s admin role."
      },
      "hasRole(bytes32,address)": {
        "details": "Returns `true` if `account` has been granted `role`."
      },
      "liquidate(uint256)": {
        "details": "Liquidates the borrower if he owns more than he has collateral.",
        "params": {
          "offerId": "if of the offer."
        }
      },
      "onERC721Received(address,address,uint256,bytes)": {
        "details": "See {IERC721Receiver-onERC721Received}. Always returns `IERC721Receiver.onERC721Received.selector`."
      },
      "renounceRole(bytes32,address)": {
        "details": "Revokes `role` from the calling account. Roles are often managed via {grantRole} and {revokeRole}: this function's purpose is to provide a mechanism for accounts to lose their privileges if they are compromised (such as when a trusted device is misplaced). If the calling account had been revoked `role`, emits a {RoleRevoked} event. Requirements: - the caller must be `account`."
      },
      "repayOffer(uint256)": {
        "details": "checks if borrower is liquidated or not, then transfers the nft to the contract,  pays the lender, pays the protocol and finally returns the rest of the collateral to the borrower",
        "params": {
          "offerId": "if of the offer."
        }
      },
      "revokeRole(bytes32,address)": {
        "details": "Revokes `role` from `account`. If `account` had been granted `role`, emits a {RoleRevoked} event. Requirements: - the caller must have ``role``'s admin role."
      },
      "supportsInterface(bytes4)": {
        "details": "See {IERC165-supportsInterface}."
      },
      "transferPayoutAddress(address)": {
        "details": "Changes account to send payout.",
        "params": {
          "newPayout": "new address to send payout."
        }
      }
    },
    "title": "ERC721Lending",
    "version": 1
  },
  "userdoc": {
    "kind": "user",
    "methods": {},
    "notice": "ERC721 Lending plataform where users that provide the ERC721 token set a liquidation limit and fee, and users that borrow the ERC721 token set how much collateral they add to the transaction",
    "version": 1
  }
}