{
  "contractName": "ERC721Lending",
  "abi": [
    {
      "inputs": [
        {
          "internalType": "address",
          "name": "Payout",
          "type": "address"
        },
        {
          "internalType": "address",
          "name": "TokenAddress",
          "type": "address"
        },
        {
          "internalType": "address",
          "name": "BaseContract",
          "type": "address"
        }
      ],
      "stateMutability": "nonpayable",
      "type": "constructor"
    },
    {
      "anonymous": false,
      "inputs": [
        {
          "indexed": false,
          "internalType": "uint256",
          "name": "offerId",
          "type": "uint256"
        },
        {
          "indexed": false,
          "internalType": "string",
          "name": "status",
          "type": "string"
        }
      ],
      "name": "OfferStatusChange",
      "type": "event"
    },
    {
      "anonymous": false,
      "inputs": [
        {
          "indexed": true,
          "internalType": "bytes32",
          "name": "role",
          "type": "bytes32"
        },
        {
          "indexed": true,
          "internalType": "bytes32",
          "name": "previousAdminRole",
          "type": "bytes32"
        },
        {
          "indexed": true,
          "internalType": "bytes32",
          "name": "newAdminRole",
          "type": "bytes32"
        }
      ],
      "name": "RoleAdminChanged",
      "type": "event"
    },
    {
      "anonymous": false,
      "inputs": [
        {
          "indexed": true,
          "internalType": "bytes32",
          "name": "role",
          "type": "bytes32"
        },
        {
          "indexed": true,
          "internalType": "address",
          "name": "account",
          "type": "address"
        },
        {
          "indexed": true,
          "internalType": "address",
          "name": "sender",
          "type": "address"
        }
      ],
      "name": "RoleGranted",
      "type": "event"
    },
    {
      "anonymous": false,
      "inputs": [
        {
          "indexed": true,
          "internalType": "bytes32",
          "name": "role",
          "type": "bytes32"
        },
        {
          "indexed": true,
          "internalType": "address",
          "name": "account",
          "type": "address"
        },
        {
          "indexed": true,
          "internalType": "address",
          "name": "sender",
          "type": "address"
        }
      ],
      "name": "RoleRevoked",
      "type": "event"
    },
    {
      "inputs": [],
      "name": "DEFAULT_ADMIN_ROLE",
      "outputs": [
        {
          "internalType": "bytes32",
          "name": "",
          "type": "bytes32"
        }
      ],
      "stateMutability": "view",
      "type": "function",
      "constant": true
    },
    {
      "inputs": [
        {
          "internalType": "bytes32",
          "name": "role",
          "type": "bytes32"
        }
      ],
      "name": "getRoleAdmin",
      "outputs": [
        {
          "internalType": "bytes32",
          "name": "",
          "type": "bytes32"
        }
      ],
      "stateMutability": "view",
      "type": "function",
      "constant": true
    },
    {
      "inputs": [
        {
          "internalType": "bytes32",
          "name": "role",
          "type": "bytes32"
        },
        {
          "internalType": "address",
          "name": "account",
          "type": "address"
        }
      ],
      "name": "grantRole",
      "outputs": [],
      "stateMutability": "nonpayable",
      "type": "function"
    },
    {
      "inputs": [
        {
          "internalType": "bytes32",
          "name": "role",
          "type": "bytes32"
        },
        {
          "internalType": "address",
          "name": "account",
          "type": "address"
        }
      ],
      "name": "hasRole",
      "outputs": [
        {
          "internalType": "bool",
          "name": "",
          "type": "bool"
        }
      ],
      "stateMutability": "view",
      "type": "function",
      "constant": true
    },
    {
      "inputs": [
        {
          "internalType": "address",
          "name": "",
          "type": "address"
        },
        {
          "internalType": "address",
          "name": "",
          "type": "address"
        },
        {
          "internalType": "uint256",
          "name": "",
          "type": "uint256"
        },
        {
          "internalType": "bytes",
          "name": "",
          "type": "bytes"
        }
      ],
      "name": "onERC721Received",
      "outputs": [
        {
          "internalType": "bytes4",
          "name": "",
          "type": "bytes4"
        }
      ],
      "stateMutability": "nonpayable",
      "type": "function"
    },
    {
      "inputs": [
        {
          "internalType": "bytes32",
          "name": "role",
          "type": "bytes32"
        },
        {
          "internalType": "address",
          "name": "account",
          "type": "address"
        }
      ],
      "name": "renounceRole",
      "outputs": [],
      "stateMutability": "nonpayable",
      "type": "function"
    },
    {
      "inputs": [
        {
          "internalType": "bytes32",
          "name": "role",
          "type": "bytes32"
        },
        {
          "internalType": "address",
          "name": "account",
          "type": "address"
        }
      ],
      "name": "revokeRole",
      "outputs": [],
      "stateMutability": "nonpayable",
      "type": "function"
    },
    {
      "inputs": [
        {
          "internalType": "bytes4",
          "name": "interfaceId",
          "type": "bytes4"
        }
      ],
      "name": "supportsInterface",
      "outputs": [
        {
          "internalType": "bool",
          "name": "",
          "type": "bool"
        }
      ],
      "stateMutability": "view",
      "type": "function",
      "constant": true
    },
    {
      "inputs": [
        {
          "internalType": "uint256",
          "name": "offerId",
          "type": "uint256"
        }
      ],
      "name": "getOffer",
      "outputs": [
        {
          "internalType": "address",
          "name": "",
          "type": "address"
        },
        {
          "internalType": "address",
          "name": "",
          "type": "address"
        },
        {
          "internalType": "uint256",
          "name": "",
          "type": "uint256"
        },
        {
          "internalType": "uint256",
          "name": "",
          "type": "uint256"
        },
        {
          "internalType": "uint256",
          "name": "",
          "type": "uint256"
        },
        {
          "internalType": "address",
          "name": "",
          "type": "address"
        },
        {
          "internalType": "uint256",
          "name": "",
          "type": "uint256"
        },
        {
          "internalType": "uint256",
          "name": "",
          "type": "uint256"
        },
        {
          "internalType": "string",
          "name": "",
          "type": "string"
        }
      ],
      "stateMutability": "view",
      "type": "function",
      "constant": true
    },
    {
      "inputs": [
        {
          "internalType": "address",
          "name": "addr",
          "type": "address"
        }
      ],
      "name": "getOffersOfAddress",
      "outputs": [
        {
          "internalType": "uint256[]",
          "name": "",
          "type": "uint256[]"
        }
      ],
      "stateMutability": "view",
      "type": "function",
      "constant": true
    },
    {
      "inputs": [],
      "name": "getOfferQuantities",
      "outputs": [
        {
          "internalType": "uint256",
          "name": "",
          "type": "uint256"
        }
      ],
      "stateMutability": "view",
      "type": "function",
      "constant": true
    },
    {
      "inputs": [
        {
          "internalType": "uint256",
          "name": "offerId",
          "type": "uint256"
        }
      ],
      "name": "feeToPay",
      "outputs": [
        {
          "internalType": "uint256",
          "name": "",
          "type": "uint256"
        }
      ],
      "stateMutability": "view",
      "type": "function",
      "constant": true
    },
    {
      "inputs": [
        {
          "internalType": "uint256",
          "name": "nftId",
          "type": "uint256"
        },
        {
          "internalType": "address",
          "name": "nftAddress",
          "type": "address"
        },
        {
          "internalType": "uint256",
          "name": "liquidation",
          "type": "uint256"
        },
        {
          "internalType": "uint256",
          "name": "fee",
          "type": "uint256"
        }
      ],
      "name": "createOffer",
      "outputs": [],
      "stateMutability": "nonpayable",
      "type": "function"
    },
    {
      "inputs": [
        {
          "internalType": "uint256",
          "name": "offerId",
          "type": "uint256"
        }
      ],
      "name": "cancelOffer",
      "outputs": [],
      "stateMutability": "nonpayable",
      "type": "function"
    },
    {
      "inputs": [
        {
          "internalType": "uint256",
          "name": "offerId",
          "type": "uint256"
        },
        {
          "internalType": "uint256",
          "name": "collateral",
          "type": "uint256"
        }
      ],
      "name": "acceptOffer",
      "outputs": [],
      "stateMutability": "nonpayable",
      "type": "function"
    },
    {
      "inputs": [
        {
          "internalType": "uint256",
          "name": "offerId",
          "type": "uint256"
        }
      ],
      "name": "repayOffer",
      "outputs": [],
      "stateMutability": "nonpayable",
      "type": "function"
    },
    {
      "inputs": [
        {
          "internalType": "uint256",
          "name": "offerId",
          "type": "uint256"
        },
        {
          "internalType": "uint256",
          "name": "extraCollateral",
          "type": "uint256"
        }
      ],
      "name": "addCollateral",
      "outputs": [],
      "stateMutability": "nonpayable",
      "type": "function"
    },
    {
      "inputs": [
        {
          "internalType": "uint256",
          "name": "offerId",
          "type": "uint256"
        }
      ],
      "name": "liquidate",
      "outputs": [],
      "stateMutability": "nonpayable",
      "type": "function"
    },
    {
      "inputs": [
        {
          "internalType": "address",
          "name": "newPayout",
          "type": "address"
        }
      ],
      "name": "transferPayoutAddress",
      "outputs": [],
      "stateMutability": "nonpayable",
      "type": "function"
    },
    {
      "inputs": [
        {
          "internalType": "uint256",
          "name": "newFee",
          "type": "uint256"
        }
      ],
      "name": "changeFee",
      "outputs": [],
      "stateMutability": "nonpayable",
      "type": "function"
    },
    {
      "inputs": [
        {
          "internalType": "uint256",
          "name": "newLiquidationFee",
          "type": "uint256"
        }
      ],
      "name": "changeLiquidationFee",
      "outputs": [],
      "stateMutability": "nonpayable",
      "type": "function"
    },
    {
      "inputs": [
        {
          "internalType": "address",
          "name": "_contract",
          "type": "address"
        }
      ],
      "name": "addContract",
      "outputs": [],
      "stateMutability": "nonpayable",
      "type": "function"
    },
    {
      "inputs": [
        {
          "internalType": "address",
          "name": "_contract",
          "type": "address"
        }
      ],
      "name": "removeContract",
      "outputs": [],
      "stateMutability": "nonpayable",
      "type": "function"
    }
  ],
  "bytecode": "0x60806040523480156200001157600080fd5b5060405162004c3b38038062004c3b83398181016040528101906200003791906200032b565b600160008190555082600660006101000a81548173ffffffffffffffffffffffffffffffffffffffff021916908373ffffffffffffffffffffffffffffffffffffffff16021790555081600760006101000a81548173ffffffffffffffffffffffffffffffffffffffff021916908373ffffffffffffffffffffffffffffffffffffffff1602179055506004600881905550600a6009819055506001600460008373ffffffffffffffffffffffffffffffffffffffff1673ffffffffffffffffffffffffffffffffffffffff16815260200190815260200160002060006101000a81548160ff0219169083151502179055506200013e6000801b336200014760201b60201c565b50505062000387565b6200015982826200015d60201b60201c565b5050565b6200016f82826200024e60201b60201c565b6200024a57600180600084815260200190815260200160002060000160008373ffffffffffffffffffffffffffffffffffffffff1673ffffffffffffffffffffffffffffffffffffffff16815260200190815260200160002060006101000a81548160ff021916908315150217905550620001ef620002b960201b60201c565b73ffffffffffffffffffffffffffffffffffffffff168173ffffffffffffffffffffffffffffffffffffffff16837f2f8788117e7eff1d82e926ec794901d17c78024a50270940304540a733656f0d60405160405180910390a45b5050565b60006001600084815260200190815260200160002060000160008373ffffffffffffffffffffffffffffffffffffffff1673ffffffffffffffffffffffffffffffffffffffff16815260200190815260200160002060009054906101000a900460ff16905092915050565b600033905090565b600080fd5b600073ffffffffffffffffffffffffffffffffffffffff82169050919050565b6000620002f382620002c6565b9050919050565b6200030581620002e6565b81146200031157600080fd5b50565b6000815190506200032581620002fa565b92915050565b600080600060608486031215620003475762000346620002c1565b5b6000620003578682870162000314565b93505060206200036a8682870162000314565b92505060406200037d8682870162000314565b9150509250925092565b6148a480620003976000396000f3fe608060405234801561001057600080fd5b506004361061014d5760003560e01c806381257bd5116100c3578063ae699e2e1161007c578063ae699e2e146103c6578063c375c2ef146103e2578063d547741f146103fe578063e121e6e51461041a578063ee1733e314610436578063ef706adf146104525761014d565b806381257bd5146102f25780638486014d1461030e57806391d148541461032c578063a217fddf1461035c578063a362edc61461037a578063a8f35adf146103aa5761014d565b8063415f124011610115578063415f12401461021a5780634579268a146102365780634d6bbf101461026e5780635f539d691461028a5780636a1db1bf146102a6578063755505a0146102c25761014d565b806301ffc9a714610152578063150b7a0214610182578063248a9ca3146101b25780632f2ff15d146101e257806336568abe146101fe575b600080fd5b61016c600480360381019061016791906130bb565b61046e565b6040516101799190613103565b60405180910390f35b61019c600480360381019061019791906132f8565b6104e8565b6040516101a9919061338a565b60405180910390f35b6101cc60048036038101906101c791906133db565b6104fc565b6040516101d99190613417565b60405180910390f35b6101fc60048036038101906101f79190613432565b61051c565b005b61021860048036038101906102139190613432565b610545565b005b610234600480360381019061022f9190613472565b6105c8565b005b610250600480360381019061024b9190613472565b6109e4565b60405161026599989796959493929190613545565b60405180910390f35b61028860048036038101906102839190613472565b610c29565b005b6102a4600480360381019061029f91906135d9565b610c49565b005b6102c060048036038101906102bb9190613472565b610cba565b005b6102dc60048036038101906102d79190613472565b610cda565b6040516102e99190613606565b60405180910390f35b61030c60048036038101906103079190613621565b610d54565b005b6103166112d1565b6040516103239190613606565b60405180910390f35b61034660048036038101906103419190613432565b6112e2565b6040516103539190613103565b60405180910390f35b61036461134d565b6040516103719190613417565b60405180910390f35b610394600480360381019061038f91906135d9565b611354565b6040516103a1919061371f565b60405180910390f35b6103c460048036038101906103bf9190613621565b6113eb565b005b6103e060048036038101906103db91906135d9565b61177d565b005b6103fc60048036038101906103f791906135d9565b6117d7565b005b61041860048036038101906104139190613432565b611848565b005b610434600480360381019061042f9190613472565b611871565b005b610450600480360381019061044b9190613741565b612192565b005b61046c60048036038101906104679190613472565b612658565b005b60007f7965db0b000000000000000000000000000000000000000000000000000000007bffffffffffffffffffffffffffffffffffffffffffffffffffffffff1916827bffffffffffffffffffffffffffffffffffffffffffffffffffffffff191614806104e157506104e082612a7b565b5b9050919050565b600063150b7a0260e01b9050949350505050565b600060016000838152602001908152602001600020600101549050919050565b610525826104fc565b61053681610531612ae5565b612aed565b6105408383612b8a565b505050565b61054d612ae5565b73ffffffffffffffffffffffffffffffffffffffff168173ffffffffffffffffffffffffffffffffffffffff16146105ba576040517f08c379a00000000000000000000000000000000000000000000000000000000081526004016105b19061381a565b60405180910390fd5b6105c48282612c6a565b5050565b6002600054141561060e576040517f08c379a000000000000000000000000000000000000000000000000000000000815260040161060590613886565b60405180910390fd5b6002600081905550600061062182610cda565b9050604051602001610632906138fd565b604051602081830303815290604052805190602001206002600084815260200190815260200160002060080160405160200161066e9190613a07565b60405160208183030381529060405280519060200120146106c4576040517f08c379a00000000000000000000000000000000000000000000000000000000081526004016106bb90613a6a565b60405180910390fd5b6002600083815260200190815260200160002060030154816106e69190613ab9565b60026000848152602001908152602001600020600601541061073d576040517f08c379a000000000000000000000000000000000000000000000000000000000815260040161073490613b5b565b60405180910390fd5b6040518060400160405280600a81526020017f4c6971756964617465640000000000000000000000000000000000000000000081525060026000848152602001908152602001600020600801908051906020019061079c929190612fac565b50600760009054906101000a900473ffffffffffffffffffffffffffffffffffffffff1673ffffffffffffffffffffffffffffffffffffffff1663a9059cbb6002600085815260200190815260200160002060000160009054906101000a900473ffffffffffffffffffffffffffffffffffffffff16606460095460646108239190613b7b565b60026000888152602001908152602001600020600601546108449190613baf565b61084e9190613c38565b6040518363ffffffff1660e01b815260040161086b929190613c69565b6020604051808303816000875af115801561088a573d6000803e3d6000fd5b505050506040513d601f19601f820116820180604052508101906108ae9190613cbe565b50600760009054906101000a900473ffffffffffffffffffffffffffffffffffffffff1673ffffffffffffffffffffffffffffffffffffffff1663a9059cbb600660009054906101000a900473ffffffffffffffffffffffffffffffffffffffff16606460095460026000888152602001908152602001600020600601546109369190613baf565b6109409190613c38565b6040518363ffffffff1660e01b815260040161095d929190613c69565b6020604051808303816000875af115801561097c573d6000803e3d6000fd5b505050506040513d601f19601f820116820180604052508101906109a09190613cbe565b507f1ce667ae522f1f380b3262bf7881f17067f07d7f50dc398385709938a9340daf826040516109d09190613d37565b60405180910390a150600160008190555050565b60008060008060008060008060606000600260008c8152602001908152602001600020604051806101200160405290816000820160009054906101000a900473ffffffffffffffffffffffffffffffffffffffff1673ffffffffffffffffffffffffffffffffffffffff1673ffffffffffffffffffffffffffffffffffffffff1681526020016001820160009054906101000a900473ffffffffffffffffffffffffffffffffffffffff1673ffffffffffffffffffffffffffffffffffffffff1673ffffffffffffffffffffffffffffffffffffffff1681526020016002820154815260200160038201548152602001600482015481526020016005820160009054906101000a900473ffffffffffffffffffffffffffffffffffffffff1673ffffffffffffffffffffffffffffffffffffffff1673ffffffffffffffffffffffffffffffffffffffff1681526020016006820154815260200160078201548152602001600882018054610b5790613941565b80601f0160208091040260200160405190810160405280929190818152602001828054610b8390613941565b8015610bd05780601f10610ba557610100808354040283529160200191610bd0565b820191906000526020600020905b815481529060010190602001808311610bb357829003601f168201915b5050505050815250509050806000015181602001518260400151836060015184608001518560a001518660c001518760e00151886101000151995099509950995099509950995099509950509193959799909294969850565b6000801b610c3e81610c39612ae5565b612aed565b816009819055505050565b6000801b610c5e81610c59612ae5565b612aed565b6001600460008473ffffffffffffffffffffffffffffffffffffffff1673ffffffffffffffffffffffffffffffffffffffff16815260200190815260200160002060006101000a81548160ff0219169083151502179055505050565b6000801b610ccf81610cca612ae5565b612aed565b816008819055505050565b60006002600083815260200190815260200160002060040154610e10600260008581526020019081526020016000206007015442610d189190613b7b565b610d229190613c38565b610d2c9190613baf565b6002600084815260200190815260200160002060040154610d4d9190613ab9565b9050919050565b60026000541415610d9a576040517f08c379a0000000000000000000000000000000000000000000000000000000008152600401610d9190613886565b60405180910390fd5b60026000819055503373ffffffffffffffffffffffffffffffffffffffff166002600084815260200190815260200160002060000160009054906101000a900473ffffffffffffffffffffffffffffffffffffffff1673ffffffffffffffffffffffffffffffffffffffff161415610e47576040517f08c379a0000000000000000000000000000000000000000000000000000000008152600401610e3e90613db1565b60405180910390fd5b604051602001610e5690613e1d565b6040516020818303038152906040528051906020012060026000848152602001908152602001600020600801604051602001610e929190613a07565b6040516020818303038152906040528051906020012014610ee8576040517f08c379a0000000000000000000000000000000000000000000000000000000008152600401610edf90613e7e565b60405180910390fd5b600060026000848152602001908152602001600020600401549050806002600085815260200190815260200160002060030154610f259190613ab9565b8211610f66576040517f08c379a0000000000000000000000000000000000000000000000000000000008152600401610f5d90613f10565b60405180910390fd5b81600760009054906101000a900473ffffffffffffffffffffffffffffffffffffffff1673ffffffffffffffffffffffffffffffffffffffff166370a08231336040518263ffffffff1660e01b8152600401610fc29190613f30565b602060405180830381865afa158015610fdf573d6000803e3d6000fd5b505050506040513d601f19601f820116820180604052508101906110039190613f60565b1015611044576040517f08c379a000000000000000000000000000000000000000000000000000000000815260040161103b90613fff565b60405180910390fd5b6040518060400160405280600281526020017f4f6e0000000000000000000000000000000000000000000000000000000000008152506002600085815260200190815260200160002060080190805190602001906110a3929190612fac565b50336002600085815260200190815260200160002060050160006101000a81548173ffffffffffffffffffffffffffffffffffffffff021916908373ffffffffffffffffffffffffffffffffffffffff160217905550816002600085815260200190815260200160002060060181905550426002600085815260200190815260200160002060070181905550600760009054906101000a900473ffffffffffffffffffffffffffffffffffffffff1673ffffffffffffffffffffffffffffffffffffffff166323b872dd3330856040518463ffffffff1660e01b815260040161118e9392919061401f565b6020604051808303816000875af11580156111ad573d6000803e3d6000fd5b505050506040513d601f19601f820116820180604052508101906111d19190613cbe565b506002600084815260200190815260200160002060010160009054906101000a900473ffffffffffffffffffffffffffffffffffffffff1673ffffffffffffffffffffffffffffffffffffffff166342842e0e303360026000888152602001908152602001600020600201546040518463ffffffff1660e01b815260040161125b9392919061401f565b600060405180830381600087803b15801561127557600080fd5b505af1158015611289573d6000803e3d6000fd5b505050507f1ce667ae522f1f380b3262bf7881f17067f07d7f50dc398385709938a9340daf836040516112bc9190614079565b60405180910390a15060016000819055505050565b60006112dd6005612d4c565b905090565b60006001600084815260200190815260200160002060000160008373ffffffffffffffffffffffffffffffffffffffff1673ffffffffffffffffffffffffffffffffffffffff16815260200190815260200160002060009054906101000a900460ff16905092915050565b6000801b81565b6060600360008373ffffffffffffffffffffffffffffffffffffffff1673ffffffffffffffffffffffffffffffffffffffff1681526020019081526020016000208054806020026020016040519081016040528092919081815260200182805480156113df57602002820191906000526020600020905b8154815260200190600101908083116113cb575b50505050509050919050565b60026000541415611431576040517f08c379a000000000000000000000000000000000000000000000000000000000815260040161142890613886565b60405180910390fd5b60026000819055503373ffffffffffffffffffffffffffffffffffffffff166002600084815260200190815260200160002060050160009054906101000a900473ffffffffffffffffffffffffffffffffffffffff1673ffffffffffffffffffffffffffffffffffffffff16146114dd576040517f08c379a00000000000000000000000000000000000000000000000000000000081526004016114d4906140f3565b60405180910390fd5b6040516020016114ec906138fd565b60405160208183030381529060405280519060200120600260008481526020019081526020016000206008016040516020016115289190613a07565b604051602081830303815290604052805190602001201461157e576040517f08c379a000000000000000000000000000000000000000000000000000000000815260040161157590613a6a565b60405180910390fd5b80600760009054906101000a900473ffffffffffffffffffffffffffffffffffffffff1673ffffffffffffffffffffffffffffffffffffffff166370a082316002600086815260200190815260200160002060050160009054906101000a900473ffffffffffffffffffffffffffffffffffffffff166040518263ffffffff1660e01b81526004016116109190613f30565b602060405180830381865afa15801561162d573d6000803e3d6000fd5b505050506040513d601f19601f820116820180604052508101906116519190613f60565b1015611692576040517f08c379a000000000000000000000000000000000000000000000000000000000815260040161168990614185565b60405180910390fd5b8060026000848152602001908152602001600020600601546116b49190613ab9565b6002600084815260200190815260200160002060060181905550600760009054906101000a900473ffffffffffffffffffffffffffffffffffffffff1673ffffffffffffffffffffffffffffffffffffffff166323b872dd3330846040518463ffffffff1660e01b815260040161172d9392919061401f565b6020604051808303816000875af115801561174c573d6000803e3d6000fd5b505050506040513d601f19601f820116820180604052508101906117709190613cbe565b5060016000819055505050565b6000801b6117928161178d612ae5565b612aed565b81600660006101000a81548173ffffffffffffffffffffffffffffffffffffffff021916908373ffffffffffffffffffffffffffffffffffffffff1602179055505050565b6000801b6117ec816117e7612ae5565b612aed565b6000600460008473ffffffffffffffffffffffffffffffffffffffff1673ffffffffffffffffffffffffffffffffffffffff16815260200190815260200160002060006101000a81548160ff0219169083151502179055505050565b611851826104fc565b6118628161185d612ae5565b612aed565b61186c8383612c6a565b505050565b600260005414156118b7576040517f08c379a00000000000000000000000000000000000000000000000000000000081526004016118ae90613886565b60405180910390fd5b60026000819055503373ffffffffffffffffffffffffffffffffffffffff166002600083815260200190815260200160002060050160009054906101000a900473ffffffffffffffffffffffffffffffffffffffff1673ffffffffffffffffffffffffffffffffffffffff1614611963576040517f08c379a000000000000000000000000000000000000000000000000000000000815260040161195a90614217565b60405180910390fd5b604051602001611972906138fd565b60405160208183030381529060405280519060200120600260008381526020019081526020016000206008016040516020016119ae9190613a07565b6040516020818303038152906040528051906020012014611a04576040517f08c379a00000000000000000000000000000000000000000000000000000000081526004016119fb90613a6a565b60405180910390fd5b3373ffffffffffffffffffffffffffffffffffffffff166002600083815260200190815260200160002060010160009054906101000a900473ffffffffffffffffffffffffffffffffffffffff1673ffffffffffffffffffffffffffffffffffffffff16636352211e60026000858152602001908152602001600020600201546040518263ffffffff1660e01b8152600401611aa09190613606565b602060405180830381865afa158015611abd573d6000803e3d6000fd5b505050506040513d601f19601f82011682018060405250810190611ae1919061424c565b73ffffffffffffffffffffffffffffffffffffffff1614611b37576040517f08c379a0000000000000000000000000000000000000000000000000000000008152600401611b2e906142c5565b60405180910390fd5b6002600082815260200190815260200160002060060154600760009054906101000a900473ffffffffffffffffffffffffffffffffffffffff1673ffffffffffffffffffffffffffffffffffffffff166370a08231306040518263ffffffff1660e01b8152600401611ba99190613f30565b602060405180830381865afa158015611bc6573d6000803e3d6000fd5b505050506040513d601f19601f82011682018060405250810190611bea9190613f60565b1015611c2b576040517f08c379a0000000000000000000000000000000000000000000000000000000008152600401611c2290614357565b60405180910390fd5b600060026000838152602001908152602001600020600701541415611c85576040517f08c379a0000000000000000000000000000000000000000000000000000000008152600401611c7c906143c3565b60405180910390fd5b6000611c9082610cda565b9050600260008381526020019081526020016000206003015481611cb49190613ab9565b60026000848152602001908152602001600020600601541015611d0c576040517f08c379a0000000000000000000000000000000000000000000000000000000008152600401611d039061442f565b60405180910390fd5b6002600083815260200190815260200160002060010160009054906101000a900473ffffffffffffffffffffffffffffffffffffffff1673ffffffffffffffffffffffffffffffffffffffff166342842e0e333060026000878152602001908152602001600020600201546040518463ffffffff1660e01b8152600401611d959392919061401f565b600060405180830381600087803b158015611daf57600080fd5b505af1158015611dc3573d6000803e3d6000fd5b50505050600760009054906101000a900473ffffffffffffffffffffffffffffffffffffffff1673ffffffffffffffffffffffffffffffffffffffff1663a9059cbb6002600085815260200190815260200160002060000160009054906101000a900473ffffffffffffffffffffffffffffffffffffffff1660646008546064611e4d9190613b7b565b85611e589190613baf565b611e629190613c38565b6040518363ffffffff1660e01b8152600401611e7f929190613c69565b6020604051808303816000875af1158015611e9e573d6000803e3d6000fd5b505050506040513d601f19601f82011682018060405250810190611ec29190613cbe565b50600760009054906101000a900473ffffffffffffffffffffffffffffffffffffffff1673ffffffffffffffffffffffffffffffffffffffff1663a9059cbb600660009054906101000a900473ffffffffffffffffffffffffffffffffffffffff16606460085485611f349190613baf565b611f3e9190613c38565b6040518363ffffffff1660e01b8152600401611f5b929190613c69565b6020604051808303816000875af1158015611f7a573d6000803e3d6000fd5b505050506040513d601f19601f82011682018060405250810190611f9e9190613cbe565b50600760009054906101000a900473ffffffffffffffffffffffffffffffffffffffff1673ffffffffffffffffffffffffffffffffffffffff1663a9059cbb338360026000878152602001908152602001600020600601546120009190613b7b565b6040518363ffffffff1660e01b815260040161201d929190613c69565b6020604051808303816000875af115801561203c573d6000803e3d6000fd5b505050506040513d601f19601f820116820180604052508101906120609190613cbe565b5060006002600084815260200190815260200160002060050160006101000a81548173ffffffffffffffffffffffffffffffffffffffff021916908373ffffffffffffffffffffffffffffffffffffffff16021790555060006002600084815260200190815260200160002060060181905550600060026000848152602001908152602001600020600701819055506040518060400160405280600481526020017f4f70656e0000000000000000000000000000000000000000000000000000000081525060026000848152602001908152602001600020600801908051906020019061214e929190612fac565b507f1ce667ae522f1f380b3262bf7881f17067f07d7f50dc398385709938a9340daf8260405161217e9190614472565b60405180910390a150600160008190555050565b600260005414156121d8576040517f08c379a00000000000000000000000000000000000000000000000000000000081526004016121cf90613886565b60405180910390fd5b600260008190555060011515600460008573ffffffffffffffffffffffffffffffffffffffff1673ffffffffffffffffffffffffffffffffffffffff16815260200190815260200160002060009054906101000a900460ff1615151461223d57600080fd5b3373ffffffffffffffffffffffffffffffffffffffff168373ffffffffffffffffffffffffffffffffffffffff16636352211e866040518263ffffffff1660e01b815260040161228d9190613606565b602060405180830381865afa1580156122aa573d6000803e3d6000fd5b505050506040513d601f19601f820116820180604052508101906122ce919061424c565b73ffffffffffffffffffffffffffffffffffffffff1614612324576040517f08c379a000000000000000000000000000000000000000000000000000000000815260040161231b906144ec565b60405180910390fd5b8273ffffffffffffffffffffffffffffffffffffffff166342842e0e3330876040518463ffffffff1660e01b81526004016123619392919061401f565b600060405180830381600087803b15801561237b57600080fd5b505af115801561238f573d6000803e3d6000fd5b5050505061239d6005612d5a565b6040518061012001604052803373ffffffffffffffffffffffffffffffffffffffff1681526020018473ffffffffffffffffffffffffffffffffffffffff168152602001858152602001838152602001828152602001600073ffffffffffffffffffffffffffffffffffffffff16815260200160008152602001600081526020016040518060400160405280600481526020017f4f70656e00000000000000000000000000000000000000000000000000000000815250815250600260006124656005612d4c565b815260200190815260200160002060008201518160000160006101000a81548173ffffffffffffffffffffffffffffffffffffffff021916908373ffffffffffffffffffffffffffffffffffffffff16021790555060208201518160010160006101000a81548173ffffffffffffffffffffffffffffffffffffffff021916908373ffffffffffffffffffffffffffffffffffffffff16021790555060408201518160020155606082015181600301556080820151816004015560a08201518160050160006101000a81548173ffffffffffffffffffffffffffffffffffffffff021916908373ffffffffffffffffffffffffffffffffffffffff16021790555060c0820151816006015560e08201518160070155610100820151816008019080519060200190612597929190612fac565b50905050600360003373ffffffffffffffffffffffffffffffffffffffff1673ffffffffffffffffffffffffffffffffffffffff1681526020019081526020016000206125e46005612d4c565b90806001815401808255809150506001900390600052602060002001600090919091909150557f1ce667ae522f1f380b3262bf7881f17067f07d7f50dc398385709938a9340daf6126356005612d4c565b6040516126429190614472565b60405180910390a1600160008190555050505050565b6002600054141561269e576040517f08c379a000000000000000000000000000000000000000000000000000000000815260040161269590613886565b60405180910390fd5b60026000819055503373ffffffffffffffffffffffffffffffffffffffff166002600083815260200190815260200160002060000160009054906101000a900473ffffffffffffffffffffffffffffffffffffffff1673ffffffffffffffffffffffffffffffffffffffff161461274a576040517f08c379a000000000000000000000000000000000000000000000000000000000815260040161274190614558565b60405180910390fd5b3073ffffffffffffffffffffffffffffffffffffffff166002600083815260200190815260200160002060010160009054906101000a900473ffffffffffffffffffffffffffffffffffffffff1673ffffffffffffffffffffffffffffffffffffffff16636352211e60026000858152602001908152602001600020600201546040518263ffffffff1660e01b81526004016127e69190613606565b602060405180830381865afa158015612803573d6000803e3d6000fd5b505050506040513d601f19601f82011682018060405250810190612827919061424c565b73ffffffffffffffffffffffffffffffffffffffff161461287d576040517f08c379a0000000000000000000000000000000000000000000000000000000008152600401612874906145ea565b60405180910390fd5b60405160200161288c90613e1d565b60405160208183030381529060405280519060200120600260008381526020019081526020016000206008016040516020016128c89190613a07565b604051602081830303815290604052805190602001201461291e576040517f08c379a000000000000000000000000000000000000000000000000000000000815260040161291590613e7e565b60405180910390fd5b6040518060400160405280600981526020017f43616e63656c6c6564000000000000000000000000000000000000000000000081525060026000838152602001908152602001600020600801908051906020019061297d929190612fac565b506002600082815260200190815260200160002060010160009054906101000a900473ffffffffffffffffffffffffffffffffffffffff1673ffffffffffffffffffffffffffffffffffffffff166342842e0e303360026000868152602001908152602001600020600201546040518463ffffffff1660e01b8152600401612a079392919061401f565b600060405180830381600087803b158015612a2157600080fd5b505af1158015612a35573d6000803e3d6000fd5b505050507f1ce667ae522f1f380b3262bf7881f17067f07d7f50dc398385709938a9340daf81604051612a689190614656565b60405180910390a1600160008190555050565b60007f01ffc9a7000000000000000000000000000000000000000000000000000000007bffffffffffffffffffffffffffffffffffffffffffffffffffffffff1916827bffffffffffffffffffffffffffffffffffffffffffffffffffffffff1916149050919050565b600033905090565b612af782826112e2565b612b8657612b1c8173ffffffffffffffffffffffffffffffffffffffff166014612d70565b612b2a8360001c6020612d70565b604051602001612b3b92919061474d565b6040516020818303038152906040526040517f08c379a0000000000000000000000000000000000000000000000000000000008152600401612b7d9190614787565b60405180910390fd5b5050565b612b9482826112e2565b612c6657600180600084815260200190815260200160002060000160008373ffffffffffffffffffffffffffffffffffffffff1673ffffffffffffffffffffffffffffffffffffffff16815260200190815260200160002060006101000a81548160ff021916908315150217905550612c0b612ae5565b73ffffffffffffffffffffffffffffffffffffffff168173ffffffffffffffffffffffffffffffffffffffff16837f2f8788117e7eff1d82e926ec794901d17c78024a50270940304540a733656f0d60405160405180910390a45b5050565b612c7482826112e2565b15612d485760006001600084815260200190815260200160002060000160008373ffffffffffffffffffffffffffffffffffffffff1673ffffffffffffffffffffffffffffffffffffffff16815260200190815260200160002060006101000a81548160ff021916908315150217905550612ced612ae5565b73ffffffffffffffffffffffffffffffffffffffff168173ffffffffffffffffffffffffffffffffffffffff16837ff6391f5c32d9c69d2a47ea670b442974b53935d1edc7fd64eb21e047a839171b60405160405180910390a45b5050565b600081600001549050919050565b6001816000016000828254019250508190555050565b606060006002836002612d839190613baf565b612d8d9190613ab9565b67ffffffffffffffff811115612da657612da56131cd565b5b6040519080825280601f01601f191660200182016040528015612dd85781602001600182028036833780820191505090505b5090507f300000000000000000000000000000000000000000000000000000000000000081600081518110612e1057612e0f6147a9565b5b60200101907effffffffffffffffffffffffffffffffffffffffffffffffffffffffffffff1916908160001a9053507f780000000000000000000000000000000000000000000000000000000000000081600181518110612e7457612e736147a9565b5b60200101907effffffffffffffffffffffffffffffffffffffffffffffffffffffffffffff1916908160001a90535060006001846002612eb49190613baf565b612ebe9190613ab9565b90505b6001811115612f5e577f3031323334353637383961626364656600000000000000000000000000000000600f861660108110612f0057612eff6147a9565b5b1a60f81b828281518110612f1757612f166147a9565b5b60200101907effffffffffffffffffffffffffffffffffffffffffffffffffffffffffffff1916908160001a905350600485901c945080612f57906147d8565b9050612ec1565b5060008414612fa2576040517f08c379a0000000000000000000000000000000000000000000000000000000008152600401612f999061484e565b60405180910390fd5b8091505092915050565b828054612fb890613941565b90600052602060002090601f016020900481019282612fda5760008555613021565b82601f10612ff357805160ff1916838001178555613021565b82800160010185558215613021579182015b82811115613020578251825591602001919060010190613005565b5b50905061302e9190613032565b5090565b5b8082111561304b576000816000905550600101613033565b5090565b6000604051905090565b600080fd5b600080fd5b60007fffffffff0000000000000000000000000000000000000000000000000000000082169050919050565b61309881613063565b81146130a357600080fd5b50565b6000813590506130b58161308f565b92915050565b6000602082840312156130d1576130d0613059565b5b60006130df848285016130a6565b91505092915050565b60008115159050919050565b6130fd816130e8565b82525050565b600060208201905061311860008301846130f4565b92915050565b600073ffffffffffffffffffffffffffffffffffffffff82169050919050565b60006131498261311e565b9050919050565b6131598161313e565b811461316457600080fd5b50565b60008135905061317681613150565b92915050565b6000819050919050565b61318f8161317c565b811461319a57600080fd5b50565b6000813590506131ac81613186565b92915050565b600080fd5b600080fd5b6000601f19601f8301169050919050565b7f4e487b7100000000000000000000000000000000000000000000000000000000600052604160045260246000fd5b613205826131bc565b810181811067ffffffffffffffff82111715613224576132236131cd565b5b80604052505050565b600061323761304f565b905061324382826131fc565b919050565b600067ffffffffffffffff821115613263576132626131cd565b5b61326c826131bc565b9050602081019050919050565b82818337600083830152505050565b600061329b61329684613248565b61322d565b9050828152602081018484840111156132b7576132b66131b7565b5b6132c2848285613279565b509392505050565b600082601f8301126132df576132de6131b2565b5b81356132ef848260208601613288565b91505092915050565b6000806000806080858703121561331257613311613059565b5b600061332087828801613167565b945050602061333187828801613167565b93505060406133428782880161319d565b925050606085013567ffffffffffffffff8111156133635761336261305e565b5b61336f878288016132ca565b91505092959194509250565b61338481613063565b82525050565b600060208201905061339f600083018461337b565b92915050565b6000819050919050565b6133b8816133a5565b81146133c357600080fd5b50565b6000813590506133d5816133af565b92915050565b6000602082840312156133f1576133f0613059565b5b60006133ff848285016133c6565b91505092915050565b613411816133a5565b82525050565b600060208201905061342c6000830184613408565b92915050565b6000806040838503121561344957613448613059565b5b6000613457858286016133c6565b925050602061346885828601613167565b9150509250929050565b60006020828403121561348857613487613059565b5b60006134968482850161319d565b91505092915050565b6134a88161313e565b82525050565b6134b78161317c565b82525050565b600081519050919050565b600082825260208201905092915050565b60005b838110156134f75780820151818401526020810190506134dc565b83811115613506576000848401525b50505050565b6000613517826134bd565b61352181856134c8565b93506135318185602086016134d9565b61353a816131bc565b840191505092915050565b60006101208201905061355b600083018c61349f565b613568602083018b61349f565b613575604083018a6134ae565b61358260608301896134ae565b61358f60808301886134ae565b61359c60a083018761349f565b6135a960c08301866134ae565b6135b660e08301856134ae565b8181036101008301526135c9818461350c565b90509a9950505050505050505050565b6000602082840312156135ef576135ee613059565b5b60006135fd84828501613167565b91505092915050565b600060208201905061361b60008301846134ae565b92915050565b6000806040838503121561363857613637613059565b5b60006136468582860161319d565b92505060206136578582860161319d565b9150509250929050565b600081519050919050565b600082825260208201905092915050565b6000819050602082019050919050565b6136968161317c565b82525050565b60006136a8838361368d565b60208301905092915050565b6000602082019050919050565b60006136cc82613661565b6136d6818561366c565b93506136e18361367d565b8060005b838110156137125781516136f9888261369c565b9750613704836136b4565b9250506001810190506136e5565b5085935050505092915050565b6000602082019050818103600083015261373981846136c1565b905092915050565b6000806000806080858703121561375b5761375a613059565b5b60006137698782880161319d565b945050602061377a87828801613167565b935050604061378b8782880161319d565b925050606061379c8782880161319d565b91505092959194509250565b7f416363657373436f6e74726f6c3a2063616e206f6e6c792072656e6f756e636560008201527f20726f6c657320666f722073656c660000000000000000000000000000000000602082015250565b6000613804602f836134c8565b915061380f826137a8565b604082019050919050565b60006020820190508181036000830152613833816137f7565b9050919050565b7f5265656e7472616e637947756172643a207265656e7472616e742063616c6c00600082015250565b6000613870601f836134c8565b915061387b8261383a565b602082019050919050565b6000602082019050818103600083015261389f81613863565b9050919050565b600081905092915050565b7f4f6e000000000000000000000000000000000000000000000000000000000000600082015250565b60006138e76002836138a6565b91506138f2826138b1565b600282019050919050565b6000613908826138da565b9150819050919050565b7f4e487b7100000000000000000000000000000000000000000000000000000000600052602260045260246000fd5b6000600282049050600182168061395957607f821691505b6020821081141561396d5761396c613912565b5b50919050565b60008190508160005260206000209050919050565b6000815461399581613941565b61399f81866138a6565b945060018216600081146139ba57600181146139cb576139fe565b60ff198316865281860193506139fe565b6139d485613973565b60005b838110156139f6578154818901526001820191506020810190506139d7565b838801955050505b50505092915050565b6000613a138284613988565b915081905092915050565b7f4f66666572206973206e6f74204f6e0000000000000000000000000000000000600082015250565b6000613a54600f836134c8565b9150613a5f82613a1e565b602082019050919050565b60006020820190508181036000830152613a8381613a47565b9050919050565b7f4e487b7100000000000000000000000000000000000000000000000000000000600052601160045260246000fd5b6000613ac48261317c565b9150613acf8361317c565b9250827fffffffffffffffffffffffffffffffffffffffffffffffffffffffffffffffff03821115613b0457613b03613a8a565b5b828201905092915050565b7f426f72726f776572206973206e6f74204c697175696461746564000000000000600082015250565b6000613b45601a836134c8565b9150613b5082613b0f565b602082019050919050565b60006020820190508181036000830152613b7481613b38565b9050919050565b6000613b868261317c565b9150613b918361317c565b925082821015613ba457613ba3613a8a565b5b828203905092915050565b6000613bba8261317c565b9150613bc58361317c565b9250817fffffffffffffffffffffffffffffffffffffffffffffffffffffffffffffffff0483118215151615613bfe57613bfd613a8a565b5b828202905092915050565b7f4e487b7100000000000000000000000000000000000000000000000000000000600052601260045260246000fd5b6000613c438261317c565b9150613c4e8361317c565b925082613c5e57613c5d613c09565b5b828204905092915050565b6000604082019050613c7e600083018561349f565b613c8b60208301846134ae565b9392505050565b613c9b816130e8565b8114613ca657600080fd5b50565b600081519050613cb881613c92565b92915050565b600060208284031215613cd457613cd3613059565b5b6000613ce284828501613ca9565b91505092915050565b7f4c69717569646174656400000000000000000000000000000000000000000000600082015250565b6000613d21600a836134c8565b9150613d2c82613ceb565b602082019050919050565b6000604082019050613d4c60008301846134ae565b8181036020830152613d5d81613d14565b905092915050565b7f43616e206e6f742061636365707420796f7572206f776e204f66666572000000600082015250565b6000613d9b601d836134c8565b9150613da682613d65565b602082019050919050565b60006020820190508181036000830152613dca81613d8e565b9050919050565b7f4f70656e00000000000000000000000000000000000000000000000000000000600082015250565b6000613e076004836138a6565b9150613e1282613dd1565b600482019050919050565b6000613e2882613dfa565b9150819050919050565b7f4f66666572206973206e6f74204f70656e000000000000000000000000000000600082015250565b6000613e686011836134c8565b9150613e7382613e32565b602082019050919050565b60006020820190508181036000830152613e9781613e5b565b9050919050565b7f4e6f7420656e6f75676820636f6c6c61746572616c20746f20626f72726f772060008201527f666f72206d6f7265207468616e20616e20686f75720000000000000000000000602082015250565b6000613efa6035836134c8565b9150613f0582613e9e565b604082019050919050565b60006020820190508181036000830152613f2981613eed565b9050919050565b6000602082019050613f45600083018461349f565b92915050565b600081519050613f5a81613186565b92915050565b600060208284031215613f7657613f75613059565b5b6000613f8484828501613f4b565b91505092915050565b7f4e6f7420656e6f7567682062616c616e636520746f207061792074686520636f60008201527f6c6c61746572616c000000000000000000000000000000000000000000000000602082015250565b6000613fe96028836134c8565b9150613ff482613f8d565b604082019050919050565b6000602082019050818103600083015261401881613fdc565b9050919050565b6000606082019050614034600083018661349f565b614041602083018561349f565b61404e60408301846134ae565b949350505050565b60006140636002836134c8565b915061406e826138b1565b602082019050919050565b600060408201905061408e60008301846134ae565b818103602083015261409f81614056565b905092915050565b7f4f6e6c7920626f72726f7765722063616e2061646420636f6c6c61746572616c600082015250565b60006140dd6020836134c8565b91506140e8826140a7565b602082019050919050565b6000602082019050818103600083015261410c816140d0565b9050919050565b7f426f72726f77657220646f6573206e6f74206861766520656e6f75676820746f60008201527f207061792074686520657874726120636f6c6c61746572616c00000000000000602082015250565b600061416f6039836134c8565b915061417a82614113565b604082019050919050565b6000602082019050818103600083015261419e81614162565b9050919050565b7f4f6e6c7920626f72726f7765722063616e20726570617920746865204f66666560008201527f7200000000000000000000000000000000000000000000000000000000000000602082015250565b60006142016021836134c8565b915061420c826141a5565b604082019050919050565b60006020820190508181036000830152614230816141f4565b9050919050565b60008151905061424681613150565b92915050565b60006020828403121561426257614261613059565b5b600061427084828501614237565b91505092915050565b7f426f72726f776572206973206e6f74206f776e6572206f6620746865204e4654600082015250565b60006142af6020836134c8565b91506142ba82614279565b602082019050919050565b600060208201905081810360008301526142de816142a2565b9050919050565b7f50726f746f636f6c20646f6573206e6f74206861766520656e6f75676820746f60008201527f207061792074686520636f6c6c61746572616c00000000000000000000000000602082015250565b60006143416033836134c8565b915061434c826142e5565b604082019050919050565b6000602082019050818103600083015261437081614334565b9050919050565b7f4163636570742074696d65203d20300000000000000000000000000000000000600082015250565b60006143ad600f836134c8565b91506143b882614377565b602082019050919050565b600060208201905081810360008301526143dc816143a0565b9050919050565b7f426f72726f7765722063616e206265204c697175696461746564000000000000600082015250565b6000614419601a836134c8565b9150614424826143e3565b602082019050919050565b600060208201905081810360008301526144488161440c565b9050919050565b600061445c6004836134c8565b915061446782613dd1565b602082019050919050565b600060408201905061448760008301846134ae565b81810360208301526144988161444f565b905092915050565b7f4e6f7420746865206f776e6572206f6620746865204e46540000000000000000600082015250565b60006144d66018836134c8565b91506144e1826144a0565b602082019050919050565b60006020820190508181036000830152614505816144c9565b9050919050565b7f4e6f7420746865206f776e6572206f6620746865204f66666572000000000000600082015250565b6000614542601a836134c8565b915061454d8261450c565b602082019050919050565b6000602082019050818103600083015261457181614535565b9050919050565b7f5468652050726f746f636f6c20646f6573206e6f74206861766520746865204e60008201527f4654000000000000000000000000000000000000000000000000000000000000602082015250565b60006145d46022836134c8565b91506145df82614578565b604082019050919050565b60006020820190508181036000830152614603816145c7565b9050919050565b7f43616e63656c6c65640000000000000000000000000000000000000000000000600082015250565b60006146406009836134c8565b915061464b8261460a565b602082019050919050565b600060408201905061466b60008301846134ae565b818103602083015261467c81614633565b905092915050565b7f416363657373436f6e74726f6c3a206163636f756e7420000000000000000000600082015250565b60006146ba6017836138a6565b91506146c582614684565b601782019050919050565b60006146db826134bd565b6146e581856138a6565b93506146f58185602086016134d9565b80840191505092915050565b7f206973206d697373696e6720726f6c6520000000000000000000000000000000600082015250565b60006147376011836138a6565b915061474282614701565b601182019050919050565b6000614758826146ad565b915061476482856146d0565b915061476f8261472a565b915061477b82846146d0565b91508190509392505050565b600060208201905081810360008301526147a1818461350c565b905092915050565b7f4e487b7100000000000000000000000000000000000000000000000000000000600052603260045260246000fd5b60006147e38261317c565b915060008214156147f7576147f6613a8a565b5b600182039050919050565b7f537472696e67733a20686578206c656e67746820696e73756666696369656e74600082015250565b60006148386020836134c8565b915061484382614802565b602082019050919050565b600060208201905081810360008301526148678161482b565b905091905056fea2646970667358221220bc8ad4f49dd8052d2d174ff35f6d4c44db0af9156d08d18c651373163584813964736f6c634300080c0033",
  "immutableReferences": {},
  "source": "// SPDX-License-Identifier: UNLICENSED\r\n\r\npragma solidity ^0.8.3;\r\n\r\nimport \"@openzeppelin/contracts/utils/Counters.sol\";\r\nimport \"@openzeppelin/contracts/token/ERC20/IERC20.sol\";\r\nimport \"@openzeppelin/contracts/token/ERC721/IERC721.sol\";\r\n\r\nimport \"@openzeppelin/contracts/token/ERC721/utils/ERC721Holder.sol\";\r\nimport \"@openzeppelin/contracts/security/ReentrancyGuard.sol\";\r\nimport \"@openzeppelin/contracts/access/AccessControl.sol\";\r\n\r\n\r\n/**\r\n * @title ERC721Lending\r\n * @notice ERC721 Lending plataform where users that provide the ERC721 token\r\n * set a liquidation limit and fee, and users that borrow the ERC721 token\r\n * set how much collateral they add to the transaction\r\n */\r\ncontract ERC721Lending is ERC721Holder, ReentrancyGuard, AccessControl {\r\n\r\n    event OfferStatusChange(uint256 offerId, string status);\r\n\r\n    struct Offer {\r\n        address owner;\r\n        address nft;\r\n        uint256 nftId;\r\n        uint256 liquidation;\r\n        uint256 hourlyFee;\r\n        address borrower;\r\n        uint256 collateral;\r\n        uint256 acceptTime;\r\n        string status; // Open, On, Cancelled, Liquidated\r\n    }\r\n\r\n    mapping(uint256 => Offer) offers;\r\n    mapping(address => uint256[]) addressToOffers;\r\n    mapping(address => bool) addressToBool;\r\n\r\n    using Counters for Counters.Counter;\r\n    Counters.Counter private offerCounter;\r\n\r\n    address PayoutAddress;\r\n    IERC20 token;\r\n    uint Fee;\r\n    uint LiquidationFee;\r\n\r\n    constructor(address Payout, address TokenAddress, address BaseContract) {\r\n        PayoutAddress = Payout;\r\n        token = IERC20(TokenAddress);\r\n        Fee = 4;\r\n        LiquidationFee = 10;\r\n        //Base Contract accepted\r\n        addressToBool[BaseContract] = true;\r\n        _setupRole(DEFAULT_ADMIN_ROLE, msg.sender);\r\n    }\r\n\r\n    /**\r\n     * @dev Returns the details for a offer.\r\n     * @param offerId The id of the offer.\r\n     */\r\n    function getOffer(uint256 offerId) external view returns (address, address, uint256, uint256, uint256, address, uint256, uint256, string memory) {\r\n        Offer memory offer = offers[offerId];\r\n        return (offer.owner, offer.nft, offer.nftId, offer.liquidation, offer.hourlyFee, offer.borrower, offer.collateral, offer.acceptTime, offer.status);\r\n    }\r\n\r\n    /**\r\n     * @dev Returns all offers of an address.\r\n     * @param addr the address to lookup.\r\n     */\r\n    function getOffersOfAddress(address addr) external view returns (uint256[] memory) {\r\n        return addressToOffers[addr];\r\n    }\r\n\r\n    /**\r\n     * @dev Returns the number of offers made.\r\n     */\r\n    function getOfferQuantities() external view returns (uint256) {\r\n        return offerCounter.current();\r\n    }\r\n\r\n    function feeToPay(uint256 offerId) public view returns (uint256) {\r\n        return offers[offerId].hourlyFee + ((block.timestamp - offers[offerId].acceptTime)/(60*60))*offers[offerId].hourlyFee;\r\n    }\r\n\r\n    /**\r\n     * @dev Opens a new Offer, and sends the nft to an escrow.\r\n     * @param nftId id of the nft to offer.\r\n     * @param nftAddress address of the nft to offer.\r\n     * @param liquidation if the amount of liquidation+accumulatedFee is bigger than the collateral, the borrower is liquidated.\r\n     * @param fee fee amount that accumulates every hour.\r\n     */\r\n    function createOffer(uint256 nftId, address nftAddress, uint256 liquidation, uint256 fee) external nonReentrant() {\r\n        require(addressToBool[nftAddress] == true);\r\n        require(IERC721(nftAddress).ownerOf(nftId) == msg.sender, \"Not the owner of the NFT\");\r\n        IERC721(nftAddress).safeTransferFrom(msg.sender, address(this), nftId);\r\n\r\n        offerCounter.increment();\r\n        offers[offerCounter.current()] = Offer(msg.sender, nftAddress, nftId, liquidation, fee, address(0), 0, 0, \"Open\");\r\n        addressToOffers[msg.sender].push(offerCounter.current());\r\n        emit OfferStatusChange(offerCounter.current(), \"Open\");\r\n    }\r\n\r\n    /**\r\n     * @dev Cancels open offer and returns the nft to the owner.\r\n     * @param offerId the id of the offer.\r\n     */\r\n    function cancelOffer(uint256 offerId) external nonReentrant() {\r\n        require(offers[offerId].owner == msg.sender, \"Not the owner of the Offer\");\r\n        require(IERC721(offers[offerId].nft).ownerOf(offers[offerId].nftId) == address(this), \"The Protocol does not have the NFT\");\r\n        require(keccak256(abi.encodePacked(offers[offerId].status)) == keccak256(abi.encodePacked(\"Open\")), \"Offer is not Open\");\r\n\r\n        offers[offerId].status = \"Cancelled\";\r\n        IERC721(offers[offerId].nft).safeTransferFrom(address(this), msg.sender, offers[offerId].nftId);\r\n        emit OfferStatusChange(offerId, \"Cancelled\");\r\n    }\r\n\r\n    /**\r\n     * @dev Accepts an Open offer, escrows the collateral on the contract and sends the nft to the borrower.\r\n     * @param offerId the id of the offer.\r\n     * @param collateral how much collateral the borrowers wants to add to the offer.\r\n     */\r\n    function acceptOffer(uint256 offerId, uint256 collateral) external nonReentrant() {\r\n        require(offers[offerId].owner != msg.sender, \"Can not accept your own Offer\");\r\n        require(keccak256(abi.encodePacked(offers[offerId].status)) == keccak256(abi.encodePacked(\"Open\")), \"Offer is not Open\");\r\n        uint256 minimumFee = offers[offerId].hourlyFee;\r\n        require(collateral > offers[offerId].liquidation + minimumFee, \"Not enough collateral to borrow for more than an hour\");\r\n        require(token.balanceOf(msg.sender) >= collateral, \"Not enough balance to pay the collateral\");\r\n\r\n        offers[offerId].status = \"On\";\r\n        offers[offerId].borrower = msg.sender;\r\n        offers[offerId].collateral = collateral;\r\n        offers[offerId].acceptTime = block.timestamp;\r\n        token.transferFrom(msg.sender, address(this), collateral);\r\n        IERC721(offers[offerId].nft).safeTransferFrom(address(this), msg.sender, offers[offerId].nftId);\r\n        emit OfferStatusChange(offerId, \"On\");\r\n    }\r\n\r\n    /**\r\n     * @dev checks if borrower is liquidated or not, then transfers the nft to the contract, \r\n     * pays the lender, pays the protocol and finally returns the rest of the collateral to the borrower\r\n     * @param offerId the id of the offer.\r\n     */\r\n    function repayOffer(uint256 offerId) external nonReentrant() {\r\n        require(offers[offerId].borrower == msg.sender, \"Only borrower can repay the Offer\");\r\n        require(keccak256(abi.encodePacked(offers[offerId].status)) == keccak256(abi.encodePacked(\"On\")), \"Offer is not On\");\r\n        require(IERC721(offers[offerId].nft).ownerOf(offers[offerId].nftId) == msg.sender, \"Borrower is not owner of the NFT\");\r\n        require(token.balanceOf(address(this)) >= offers[offerId].collateral, \"Protocol does not have enough to pay the collateral\");\r\n        require(offers[offerId].acceptTime != 0, \"Accept time = 0\");\r\n        //minimum Fee is at least 1 hour and increases each hour\r\n        uint256 fee = feeToPay(offerId);\r\n        // User is not liquidated\r\n        require(offers[offerId].collateral >= (fee + offers[offerId].liquidation), \"Borrower can be Liquidated\");\r\n\r\n        IERC721(offers[offerId].nft).safeTransferFrom(msg.sender, address(this), offers[offerId].nftId);\r\n        token.transfer(offers[offerId].owner, fee*(100-Fee)/100);\r\n        token.transfer(PayoutAddress, fee*Fee/100);\r\n        token.transfer(msg.sender, (offers[offerId].collateral - fee));\r\n\r\n        offers[offerId].borrower = address(0);\r\n        offers[offerId].collateral = 0;\r\n        offers[offerId].acceptTime = 0;\r\n        offers[offerId].status = \"Open\";\r\n        emit OfferStatusChange(offerId, \"Open\");\r\n    }\r\n\r\n    /**\r\n     * @dev Adds extra collateral to the position of the borrower.\r\n     * @param offerId the id of the offer.\r\n     * @param extraCollateral how much extra collateral the borrowers wants to add to the offer.\r\n     */\r\n    function addCollateral(uint256 offerId, uint256 extraCollateral) external nonReentrant() {\r\n        require(offers[offerId].borrower == msg.sender, \"Only borrower can add collateral\");\r\n        require(keccak256(abi.encodePacked(offers[offerId].status)) == keccak256(abi.encodePacked(\"On\")), \"Offer is not On\");\r\n        require(token.balanceOf(offers[offerId].borrower) >= extraCollateral, \"Borrower does not have enough to pay the extra collateral\");\r\n\r\n        offers[offerId].collateral = offers[offerId].collateral + extraCollateral;\r\n        token.transferFrom(msg.sender, address(this), extraCollateral);\r\n    }\r\n\r\n    /**\r\n     * @dev Liquidates the borrower if he owns more than he has collateral.\r\n     * @param offerId the id of the offer.\r\n     */\r\n    function liquidate(uint256 offerId) external nonReentrant() {\r\n        uint256 fee = feeToPay(offerId);\r\n        require(keccak256(abi.encodePacked(offers[offerId].status)) == keccak256(abi.encodePacked(\"On\")), \"Offer is not On\");\r\n        require(offers[offerId].collateral < (fee + offers[offerId].liquidation), \"Borrower is not Liquidated\");\r\n\r\n        offers[offerId].status = \"Liquidated\";\r\n        token.transfer(offers[offerId].owner, offers[offerId].collateral*(100-LiquidationFee)/100);\r\n        token.transfer(PayoutAddress, offers[offerId].collateral*LiquidationFee/100);\r\n        emit OfferStatusChange(offerId, \"Liquidated\");\r\n    }\r\n\r\n    /**\r\n     * @dev Changes account to send payout.\r\n     * @param newPayout new address to send payout.\r\n     */\r\n    function transferPayoutAddress(address newPayout) external onlyRole(DEFAULT_ADMIN_ROLE) {\r\n        PayoutAddress = newPayout;\r\n    }\r\n\r\n    /**\r\n     * @dev Changes the fee \r\n     * @param newFee new fee.\r\n     */\r\n    function changeFee(uint256 newFee) external onlyRole(DEFAULT_ADMIN_ROLE) {\r\n        Fee = newFee;\r\n    }\r\n\r\n    /**\r\n     * @dev Changes the liquidation fee\r\n     * @param newLiquidationFee new liquidation fee.\r\n     */\r\n    function changeLiquidationFee(uint256 newLiquidationFee) external onlyRole(DEFAULT_ADMIN_ROLE) {\r\n        LiquidationFee = newLiquidationFee;\r\n    }\r\n\r\n    /**\r\n     * @dev adds new contract of ERC721 to the protocol\r\n     * @param _contract new nft contract to use on the protocol.\r\n     */\r\n    function addContract(address _contract) external onlyRole(DEFAULT_ADMIN_ROLE) {\r\n        addressToBool[_contract] = true;\r\n    }\r\n\r\n    /**\r\n     * @dev removes a contract of ERC721 to the protocol\r\n     * @param _contract new nft contract to use on the protocol.\r\n     */\r\n    function removeContract(address _contract) external onlyRole(DEFAULT_ADMIN_ROLE) {\r\n        addressToBool[_contract] = false;\r\n    }\r\n\r\n}",
  "sourcePath": "C:\\Users\\jtsch\\OneDrive\\Escritorio\\DFK-Lending\\DFK-Lending-SmartContracts\\contracts\\ERC721Lending.sol",
  "compiler": {
    "name": "solc",
    "version": "0.8.12+commit.f00d7308.Emscripten.clang"
  },
  "schemaVersion": "3.4.3",
  "updatedAt": "2022-02-21T18:37:07.755Z",
  "networkType": "ethereum",
  "devdoc": {
    "kind": "dev",
    "methods": {
      "acceptOffer(uint256,uint256)": {
        "details": "Accepts an Open offer, escrows the collateral on the contract and sends the nft to the borrower.",
        "params": {
          "collateral": "how much collateral the borrowers wants to add to the offer.",
          "offerId": "the id of the offer."
        }
      },
      "addCollateral(uint256,uint256)": {
        "details": "Adds extra collateral to the position of the borrower.",
        "params": {
          "extraCollateral": "how much extra collateral the borrowers wants to add to the offer.",
          "offerId": "the id of the offer."
        }
      },
      "addContract(address)": {
        "details": "adds new contract of ERC721 to the protocol",
        "params": {
          "_contract": "new nft contract to use on the protocol."
        }
      },
      "cancelOffer(uint256)": {
        "details": "Cancels open offer and returns the nft to the owner.",
        "params": {
          "offerId": "the id of the offer."
        }
      },
      "changeFee(uint256)": {
        "details": "Changes the fee ",
        "params": {
          "newFee": "new fee."
        }
      },
      "changeLiquidationFee(uint256)": {
        "details": "Changes the liquidation fee",
        "params": {
          "newLiquidationFee": "new liquidation fee."
        }
      },
      "createOffer(uint256,address,uint256,uint256)": {
        "details": "Opens a new Offer, and sends the nft to an escrow.",
        "params": {
          "fee": "fee amount that accumulates every hour.",
          "liquidation": "if the amount of liquidation+accumulatedFee is bigger than the collateral, the borrower is liquidated.",
          "nftAddress": "address of the nft to offer.",
          "nftId": "id of the nft to offer."
        }
      },
      "getOffer(uint256)": {
        "details": "Returns the details for a offer.",
        "params": {
          "offerId": "The id of the offer."
        }
      },
      "getOfferQuantities()": {
        "details": "Returns the number of offers made."
      },
      "getOffersOfAddress(address)": {
        "details": "Returns all offers of an address.",
        "params": {
          "addr": "the address to lookup."
        }
      },
      "getRoleAdmin(bytes32)": {
        "details": "Returns the admin role that controls `role`. See {grantRole} and {revokeRole}. To change a role's admin, use {_setRoleAdmin}."
      },
      "grantRole(bytes32,address)": {
        "details": "Grants `role` to `account`. If `account` had not been already granted `role`, emits a {RoleGranted} event. Requirements: - the caller must have ``role``'s admin role."
      },
      "hasRole(bytes32,address)": {
        "details": "Returns `true` if `account` has been granted `role`."
      },
      "liquidate(uint256)": {
        "details": "Liquidates the borrower if he owns more than he has collateral.",
        "params": {
          "offerId": "the id of the offer."
        }
      },
      "onERC721Received(address,address,uint256,bytes)": {
        "details": "See {IERC721Receiver-onERC721Received}. Always returns `IERC721Receiver.onERC721Received.selector`."
      },
      "removeContract(address)": {
        "details": "removes a contract of ERC721 to the protocol",
        "params": {
          "_contract": "new nft contract to use on the protocol."
        }
      },
      "renounceRole(bytes32,address)": {
        "details": "Revokes `role` from the calling account. Roles are often managed via {grantRole} and {revokeRole}: this function's purpose is to provide a mechanism for accounts to lose their privileges if they are compromised (such as when a trusted device is misplaced). If the calling account had been revoked `role`, emits a {RoleRevoked} event. Requirements: - the caller must be `account`."
      },
      "repayOffer(uint256)": {
        "details": "checks if borrower is liquidated or not, then transfers the nft to the contract,  pays the lender, pays the protocol and finally returns the rest of the collateral to the borrower",
        "params": {
          "offerId": "the id of the offer."
        }
      },
      "revokeRole(bytes32,address)": {
        "details": "Revokes `role` from `account`. If `account` had been granted `role`, emits a {RoleRevoked} event. Requirements: - the caller must have ``role``'s admin role."
      },
      "supportsInterface(bytes4)": {
        "details": "See {IERC165-supportsInterface}."
      },
      "transferPayoutAddress(address)": {
        "details": "Changes account to send payout.",
        "params": {
          "newPayout": "new address to send payout."
        }
      }
    },
    "title": "ERC721Lending",
    "version": 1
  },
  "userdoc": {
    "kind": "user",
    "methods": {},
    "notice": "ERC721 Lending plataform where users that provide the ERC721 token set a liquidation limit and fee, and users that borrow the ERC721 token set how much collateral they add to the transaction",
    "version": 1
  }
}