{
  "contractName": "HeroLending",
  "abi": [
    {
      "anonymous": false,
      "inputs": [
        {
          "indexed": false,
          "internalType": "uint256",
          "name": "offerId",
          "type": "uint256"
        }
      ],
      "name": "AcceptOffer",
      "type": "event"
    },
    {
      "anonymous": false,
      "inputs": [
        {
          "indexed": false,
          "internalType": "uint256",
          "name": "offerId",
          "type": "uint256"
        }
      ],
      "name": "CancelOffer",
      "type": "event"
    },
    {
      "anonymous": false,
      "inputs": [
        {
          "indexed": false,
          "internalType": "uint256",
          "name": "offerId",
          "type": "uint256"
        }
      ],
      "name": "Liquidate",
      "type": "event"
    },
    {
      "anonymous": false,
      "inputs": [
        {
          "indexed": false,
          "internalType": "uint256",
          "name": "offerId",
          "type": "uint256"
        }
      ],
      "name": "NewOffer",
      "type": "event"
    },
    {
      "anonymous": false,
      "inputs": [
        {
          "indexed": false,
          "internalType": "uint256",
          "name": "offerId",
          "type": "uint256"
        }
      ],
      "name": "RepayOffer",
      "type": "event"
    },
    {
      "inputs": [
        {
          "internalType": "uint256",
          "name": "",
          "type": "uint256"
        }
      ],
      "name": "offers",
      "outputs": [
        {
          "internalType": "address",
          "name": "owner",
          "type": "address"
        },
        {
          "internalType": "uint256",
          "name": "heroId",
          "type": "uint256"
        },
        {
          "internalType": "uint256",
          "name": "liquidation",
          "type": "uint256"
        },
        {
          "internalType": "uint256",
          "name": "dailyFee",
          "type": "uint256"
        },
        {
          "internalType": "address",
          "name": "borrower",
          "type": "address"
        },
        {
          "internalType": "uint256",
          "name": "collateral",
          "type": "uint256"
        },
        {
          "internalType": "uint256",
          "name": "acceptTime",
          "type": "uint256"
        },
        {
          "internalType": "string",
          "name": "status",
          "type": "string"
        }
      ],
      "stateMutability": "view",
      "type": "function",
      "constant": true
    },
    {
      "inputs": [
        {
          "internalType": "address",
          "name": "",
          "type": "address"
        },
        {
          "internalType": "address",
          "name": "",
          "type": "address"
        },
        {
          "internalType": "uint256",
          "name": "",
          "type": "uint256"
        },
        {
          "internalType": "bytes",
          "name": "",
          "type": "bytes"
        }
      ],
      "name": "onERC721Received",
      "outputs": [
        {
          "internalType": "bytes4",
          "name": "",
          "type": "bytes4"
        }
      ],
      "stateMutability": "nonpayable",
      "type": "function"
    },
    {
      "inputs": [],
      "name": "initialize",
      "outputs": [],
      "stateMutability": "nonpayable",
      "type": "function"
    },
    {
      "inputs": [
        {
          "internalType": "uint256",
          "name": "offerId",
          "type": "uint256"
        }
      ],
      "name": "offerOwner",
      "outputs": [
        {
          "internalType": "address",
          "name": "",
          "type": "address"
        }
      ],
      "stateMutability": "view",
      "type": "function",
      "constant": true
    },
    {
      "inputs": [
        {
          "internalType": "uint256",
          "name": "offerId",
          "type": "uint256"
        }
      ],
      "name": "offerHeroId",
      "outputs": [
        {
          "internalType": "uint256",
          "name": "",
          "type": "uint256"
        }
      ],
      "stateMutability": "view",
      "type": "function",
      "constant": true
    },
    {
      "inputs": [
        {
          "internalType": "uint256",
          "name": "offerId",
          "type": "uint256"
        }
      ],
      "name": "offerLiquidation",
      "outputs": [
        {
          "internalType": "uint256",
          "name": "",
          "type": "uint256"
        }
      ],
      "stateMutability": "view",
      "type": "function",
      "constant": true
    },
    {
      "inputs": [
        {
          "internalType": "uint256",
          "name": "offerId",
          "type": "uint256"
        }
      ],
      "name": "offerDailyFee",
      "outputs": [
        {
          "internalType": "uint256",
          "name": "",
          "type": "uint256"
        }
      ],
      "stateMutability": "view",
      "type": "function",
      "constant": true
    },
    {
      "inputs": [
        {
          "internalType": "uint256",
          "name": "offerId",
          "type": "uint256"
        }
      ],
      "name": "offerBorrower",
      "outputs": [
        {
          "internalType": "address",
          "name": "",
          "type": "address"
        }
      ],
      "stateMutability": "view",
      "type": "function",
      "constant": true
    },
    {
      "inputs": [
        {
          "internalType": "uint256",
          "name": "offerId",
          "type": "uint256"
        }
      ],
      "name": "offerCollateral",
      "outputs": [
        {
          "internalType": "uint256",
          "name": "",
          "type": "uint256"
        }
      ],
      "stateMutability": "view",
      "type": "function",
      "constant": true
    },
    {
      "inputs": [
        {
          "internalType": "uint256",
          "name": "offerId",
          "type": "uint256"
        }
      ],
      "name": "offerAcceptTime",
      "outputs": [
        {
          "internalType": "uint256",
          "name": "",
          "type": "uint256"
        }
      ],
      "stateMutability": "view",
      "type": "function",
      "constant": true
    },
    {
      "inputs": [
        {
          "internalType": "uint256",
          "name": "offerId",
          "type": "uint256"
        }
      ],
      "name": "offerStatus",
      "outputs": [
        {
          "internalType": "string",
          "name": "",
          "type": "string"
        }
      ],
      "stateMutability": "view",
      "type": "function",
      "constant": true
    },
    {
      "inputs": [],
      "name": "offersQuantity",
      "outputs": [
        {
          "internalType": "uint256",
          "name": "",
          "type": "uint256"
        }
      ],
      "stateMutability": "view",
      "type": "function",
      "constant": true
    },
    {
      "inputs": [
        {
          "internalType": "uint256",
          "name": "heroId",
          "type": "uint256"
        },
        {
          "internalType": "uint256",
          "name": "liquidation",
          "type": "uint256"
        },
        {
          "internalType": "uint256",
          "name": "fee",
          "type": "uint256"
        }
      ],
      "name": "createOffer",
      "outputs": [],
      "stateMutability": "nonpayable",
      "type": "function"
    },
    {
      "inputs": [
        {
          "internalType": "uint256",
          "name": "offerId",
          "type": "uint256"
        }
      ],
      "name": "cancelOffer",
      "outputs": [],
      "stateMutability": "nonpayable",
      "type": "function"
    },
    {
      "inputs": [
        {
          "internalType": "uint256",
          "name": "offerId",
          "type": "uint256"
        },
        {
          "internalType": "uint256",
          "name": "collateral",
          "type": "uint256"
        }
      ],
      "name": "acceptOffer",
      "outputs": [],
      "stateMutability": "nonpayable",
      "type": "function"
    },
    {
      "inputs": [
        {
          "internalType": "uint256",
          "name": "offerId",
          "type": "uint256"
        }
      ],
      "name": "repayOffer",
      "outputs": [],
      "stateMutability": "nonpayable",
      "type": "function"
    },
    {
      "inputs": [
        {
          "internalType": "uint256",
          "name": "offerId",
          "type": "uint256"
        },
        {
          "internalType": "uint256",
          "name": "extraCollateral",
          "type": "uint256"
        }
      ],
      "name": "addCollateral",
      "outputs": [],
      "stateMutability": "nonpayable",
      "type": "function"
    },
    {
      "inputs": [
        {
          "internalType": "uint256",
          "name": "offerId",
          "type": "uint256"
        }
      ],
      "name": "liquidate",
      "outputs": [],
      "stateMutability": "nonpayable",
      "type": "function"
    }
  ],
  "bytecode": "0x608060405234801561001057600080fd5b50613094806100206000396000f3fe608060405234801561001057600080fd5b50600436106101165760003560e01c80638388495e116100a2578063d843b2c711610071578063d843b2c71461031e578063dc35a9001461034e578063e121e6e51461036a578063eeeb357e14610386578063ef706adf146103b657610116565b80638388495e1461026b5780638a72ea6a1461029b578063a8f35adf146102d2578063cb0cebbd146102ee57610116565b80635b61913f116100e95780635b61913f146101c75780635e7b52a1146101f75780636b4292161461022757806381257bd5146102455780638129fc1c1461026157610116565b806306bf6d551461011b578063150b7a021461014b57806328bc02cc1461017b578063415f1240146101ab575b600080fd5b61013560048036038101906101309190612648565b6103d2565b60405161014291906126b6565b60405180910390f35b61016560048036038101906101609190612843565b610421565b6040516101729190612901565b60405180910390f35b61019560048036038101906101909190612648565b610435565b6040516101a291906126b6565b60405180910390f35b6101c560048036038101906101c09190612648565b610484565b005b6101e160048036038101906101dc9190612648565b61089f565b6040516101ee919061292b565b60405180910390f35b610211600480360381019061020c9190612648565b6108ce565b60405161021e919061292b565b60405180910390f35b61022f6108fd565b60405161023c919061292b565b60405180910390f35b61025f600480360381019061025a9190612946565b61090f565b005b610269610ddd565b005b61028560048036038101906102809190612648565b611086565b604051610292919061292b565b60405180910390f35b6102b560048036038101906102b09190612648565b6110b5565b6040516102c9989796959493929190612a0e565b60405180910390f35b6102ec60048036038101906102e79190612946565b6111d5565b005b61030860048036038101906103039190612648565b611475565b604051610315919061292b565b60405180910390f35b61033860048036038101906103339190612648565b6114a4565b6040516103459190612a93565b60405180910390f35b61036860048036038101906103639190612ab5565b61155b565b005b610384600480360381019061037f9190612648565b6118ae565b005b6103a0600480360381019061039b9190612648565b6121aa565b6040516103ad919061292b565b60405180910390f35b6103d060048036038101906103cb9190612648565b6121d9565b005b6000600382815481106103e8576103e7612b08565b5b906000526020600020906008020160040160009054906101000a900473ffffffffffffffffffffffffffffffffffffffff169050919050565b600063150b7a0260e01b9050949350505050565b60006003828154811061044b5761044a612b08565b5b906000526020600020906008020160000160009054906101000a900473ffffffffffffffffffffffffffffffffffffffff169050919050565b60006003828154811061049a57610499612b08565b5b90600052602060002090600802016003015462015180600384815481106104c4576104c3612b08565b5b906000526020600020906008020160060154426104e19190612b66565b6104eb9190612bc9565b6104f59190612bfa565b905060405160200161050690612cab565b60405160208183030381529060405280519060200120600383815481106105305761052f612b08565b5b90600052602060002090600802016007016040516020016105519190612db5565b604051602081830303815290604052805190602001201461057157600080fd5b6003828154811061058557610584612b08565b5b906000526020600020906008020160020154816105a29190612dcc565b600383815481106105b6576105b5612b08565b5b906000526020600020906008020160050154106105d257600080fd5b6040518060400160405280600a81526020017f4c697175696461746564000000000000000000000000000000000000000000008152506003838154811061061c5761061b612b08565b5b9060005260206000209060080201600701908051906020019061064092919061255b565b50600560009054906101000a900473ffffffffffffffffffffffffffffffffffffffff1673ffffffffffffffffffffffffffffffffffffffff1663a9059cbb6003848154811061069357610692612b08565b5b906000526020600020906008020160000160009054906101000a900473ffffffffffffffffffffffffffffffffffffffff166064605a600387815481106106dd576106dc612b08565b5b9060005260206000209060080201600501546106f99190612bfa565b6107039190612bc9565b6040518363ffffffff1660e01b8152600401610720929190612e22565b6020604051808303816000875af115801561073f573d6000803e3d6000fd5b505050506040513d601f19601f820116820180604052508101906107639190612e83565b50600560009054906101000a900473ffffffffffffffffffffffffffffffffffffffff1673ffffffffffffffffffffffffffffffffffffffff1663a9059cbb600260009054906101000a900473ffffffffffffffffffffffffffffffffffffffff166064600a600387815481106107dd576107dc612b08565b5b9060005260206000209060080201600501546107f99190612bfa565b6108039190612bc9565b6040518363ffffffff1660e01b8152600401610820929190612e22565b6020604051808303816000875af115801561083f573d6000803e3d6000fd5b505050506040513d601f19601f820116820180604052508101906108639190612e83565b507fafe8025042fe09457744b5a74c64737289309ac0970116f6efcebcb38b4dc59182604051610893919061292b565b60405180910390a15050565b6000600382815481106108b5576108b4612b08565b5b9060005260206000209060080201600101549050919050565b6000600382815481106108e4576108e3612b08565b5b9060005260206000209060080201600501549050919050565b60008060038054905090508091505090565b3373ffffffffffffffffffffffffffffffffffffffff166003838154811061093a57610939612b08565b5b906000526020600020906008020160000160009054906101000a900473ffffffffffffffffffffffffffffffffffffffff1673ffffffffffffffffffffffffffffffffffffffff16141561098d57600080fd5b60405160200161099c90612efc565b60405160208183030381529060405280519060200120600383815481106109c6576109c5612b08565b5b90600052602060002090600802016007016040516020016109e79190612db5565b6040516020818303038152906040528051906020012014610a0757600080fd5b6000601860038481548110610a1f57610a1e612b08565b5b906000526020600020906008020160030154610a3b9190612bc9565b90508060038481548110610a5257610a51612b08565b5b906000526020600020906008020160020154610a6e9190612dcc565b8211610a7957600080fd5b81600560009054906101000a900473ffffffffffffffffffffffffffffffffffffffff1673ffffffffffffffffffffffffffffffffffffffff166370a08231336040518263ffffffff1660e01b8152600401610ad591906126b6565b602060405180830381865afa158015610af2573d6000803e3d6000fd5b505050506040513d601f19601f82011682018060405250810190610b169190612f26565b1015610b2157600080fd5b6040518060400160405280600281526020017f4f6e00000000000000000000000000000000000000000000000000000000000081525060038481548110610b6b57610b6a612b08565b5b90600052602060002090600802016007019080519060200190610b8f92919061255b565b503360038481548110610ba557610ba4612b08565b5b906000526020600020906008020160040160006101000a81548173ffffffffffffffffffffffffffffffffffffffff021916908373ffffffffffffffffffffffffffffffffffffffff1602179055508160038481548110610c0957610c08612b08565b5b9060005260206000209060080201600501819055504260038481548110610c3357610c32612b08565b5b906000526020600020906008020160060181905550600560009054906101000a900473ffffffffffffffffffffffffffffffffffffffff1673ffffffffffffffffffffffffffffffffffffffff166323b872dd3330856040518463ffffffff1660e01b8152600401610ca793929190612f53565b6020604051808303816000875af1158015610cc6573d6000803e3d6000fd5b505050506040513d601f19601f82011682018060405250810190610cea9190612e83565b50600460009054906101000a900473ffffffffffffffffffffffffffffffffffffffff1673ffffffffffffffffffffffffffffffffffffffff166342842e0e303360038781548110610d3f57610d3e612b08565b5b9060005260206000209060080201600101546040518463ffffffff1660e01b8152600401610d6f93929190612f53565b600060405180830381600087803b158015610d8957600080fd5b505af1158015610d9d573d6000803e3d6000fd5b505050507fbcacf710aa41ccef04977c6de1df444984621e2bd0c86e0b001620ab014d187483604051610dd0919061292b565b60405180910390a1505050565b600060019054906101000a900460ff16610e055760008054906101000a900460ff1615610e0e565b610e0d612527565b5b610e4d576040517f08c379a0000000000000000000000000000000000000000000000000000000008152600401610e4490612ffc565b60405180910390fd5b60008060019054906101000a900460ff161590508015610e9d576001600060016101000a81548160ff02191690831515021790555060016000806101000a81548160ff0219169083151502179055505b73cf88d09658dd442e6fa1d721c2d783a8199b8c06600060026101000a81548173ffffffffffffffffffffffffffffffffffffffff021916908373ffffffffffffffffffffffffffffffffffffffff16021790555073ac8578b232f08b6fec672adce63987f5c57c0249600160006101000a81548173ffffffffffffffffffffffffffffffffffffffff021916908373ffffffffffffffffffffffffffffffffffffffff16021790555073867df63d1eeaef93984250f78b4bd83c70652dce600260006101000a81548173ffffffffffffffffffffffffffffffffffffffff021916908373ffffffffffffffffffffffffffffffffffffffff160217905550600060029054906101000a900473ffffffffffffffffffffffffffffffffffffffff16600460006101000a81548173ffffffffffffffffffffffffffffffffffffffff021916908373ffffffffffffffffffffffffffffffffffffffff160217905550600160009054906101000a900473ffffffffffffffffffffffffffffffffffffffff16600560006101000a81548173ffffffffffffffffffffffffffffffffffffffff021916908373ffffffffffffffffffffffffffffffffffffffff16021790555080156110835760008060016101000a81548160ff0219169083151502179055505b50565b60006003828154811061109c5761109b612b08565b5b9060005260206000209060080201600301549050919050565b600381815481106110c557600080fd5b90600052602060002090600802016000915090508060000160009054906101000a900473ffffffffffffffffffffffffffffffffffffffff16908060010154908060020154908060030154908060040160009054906101000a900473ffffffffffffffffffffffffffffffffffffffff169080600501549080600601549080600701805461115290612cef565b80601f016020809104026020016040519081016040528092919081815260200182805461117e90612cef565b80156111cb5780601f106111a0576101008083540402835291602001916111cb565b820191906000526020600020905b8154815290600101906020018083116111ae57829003601f168201915b5050505050905088565b3373ffffffffffffffffffffffffffffffffffffffff1660038381548110611200576111ff612b08565b5b906000526020600020906008020160040160009054906101000a900473ffffffffffffffffffffffffffffffffffffffff1673ffffffffffffffffffffffffffffffffffffffff161461125257600080fd5b60405160200161126190612cab565b604051602081830303815290604052805190602001206003838154811061128b5761128a612b08565b5b90600052602060002090600802016007016040516020016112ac9190612db5565b60405160208183030381529060405280519060200120146112cc57600080fd5b80600560009054906101000a900473ffffffffffffffffffffffffffffffffffffffff1673ffffffffffffffffffffffffffffffffffffffff166370a08231306040518263ffffffff1660e01b815260040161132891906126b6565b602060405180830381865afa158015611345573d6000803e3d6000fd5b505050506040513d601f19601f820116820180604052508101906113699190612f26565b101561137457600080fd5b806003838154811061138957611388612b08565b5b9060005260206000209060080201600501546113a59190612dcc565b600383815481106113b9576113b8612b08565b5b906000526020600020906008020160050181905550600560009054906101000a900473ffffffffffffffffffffffffffffffffffffffff1673ffffffffffffffffffffffffffffffffffffffff166323b872dd3330846040518463ffffffff1660e01b815260040161142d93929190612f53565b6020604051808303816000875af115801561144c573d6000803e3d6000fd5b505050506040513d601f19601f820116820180604052508101906114709190612e83565b505050565b60006003828154811061148b5761148a612b08565b5b9060005260206000209060080201600201549050919050565b6060600382815481106114ba576114b9612b08565b5b906000526020600020906008020160070180546114d690612cef565b80601f016020809104026020016040519081016040528092919081815260200182805461150290612cef565b801561154f5780601f106115245761010080835404028352916020019161154f565b820191906000526020600020905b81548152906001019060200180831161153257829003601f168201915b50505050509050919050565b3373ffffffffffffffffffffffffffffffffffffffff16600460009054906101000a900473ffffffffffffffffffffffffffffffffffffffff1673ffffffffffffffffffffffffffffffffffffffff16636352211e856040518263ffffffff1660e01b81526004016115cd919061292b565b602060405180830381865afa1580156115ea573d6000803e3d6000fd5b505050506040513d601f19601f8201168201806040525081019061160e9190613031565b73ffffffffffffffffffffffffffffffffffffffff161461162e57600080fd5b6000600380549050905060036040518061010001604052803373ffffffffffffffffffffffffffffffffffffffff168152602001868152602001858152602001848152602001600073ffffffffffffffffffffffffffffffffffffffff16815260200160008152602001600081526020016040518060400160405280600481526020017f4f70656e00000000000000000000000000000000000000000000000000000000815250815250908060018154018082558091505060019003906000526020600020906008020160009091909190915060008201518160000160006101000a81548173ffffffffffffffffffffffffffffffffffffffff021916908373ffffffffffffffffffffffffffffffffffffffff16021790555060208201518160010155604082015181600201556060820151816003015560808201518160040160006101000a81548173ffffffffffffffffffffffffffffffffffffffff021916908373ffffffffffffffffffffffffffffffffffffffff16021790555060a0820151816005015560c0820151816006015560e08201518160070190805190602001906117dd92919061255b565b505050600460009054906101000a900473ffffffffffffffffffffffffffffffffffffffff1673ffffffffffffffffffffffffffffffffffffffff166342842e0e3330876040518463ffffffff1660e01b815260040161183f93929190612f53565b600060405180830381600087803b15801561185957600080fd5b505af115801561186d573d6000803e3d6000fd5b505050507fc3e96d1275e81254d707531f5025b9b6d01f2bec370e5ff07979d37afbd3ee41816040516118a0919061292b565b60405180910390a150505050565b3373ffffffffffffffffffffffffffffffffffffffff16600382815481106118d9576118d8612b08565b5b906000526020600020906008020160040160009054906101000a900473ffffffffffffffffffffffffffffffffffffffff1673ffffffffffffffffffffffffffffffffffffffff161461192b57600080fd5b60405160200161193a90612cab565b604051602081830303815290604052805190602001206003828154811061196457611963612b08565b5b90600052602060002090600802016007016040516020016119859190612db5565b60405160208183030381529060405280519060200120146119a557600080fd5b3373ffffffffffffffffffffffffffffffffffffffff16600460009054906101000a900473ffffffffffffffffffffffffffffffffffffffff1673ffffffffffffffffffffffffffffffffffffffff16636352211e60038481548110611a0e57611a0d612b08565b5b9060005260206000209060080201600101546040518263ffffffff1660e01b8152600401611a3c919061292b565b602060405180830381865afa158015611a59573d6000803e3d6000fd5b505050506040513d601f19601f82011682018060405250810190611a7d9190613031565b73ffffffffffffffffffffffffffffffffffffffff1614611a9d57600080fd5b60038181548110611ab157611ab0612b08565b5b906000526020600020906008020160050154600560009054906101000a900473ffffffffffffffffffffffffffffffffffffffff1673ffffffffffffffffffffffffffffffffffffffff166370a08231306040518263ffffffff1660e01b8152600401611b1e91906126b6565b602060405180830381865afa158015611b3b573d6000803e3d6000fd5b505050506040513d601f19601f82011682018060405250810190611b5f9190612f26565b1015611b6a57600080fd5b600060038281548110611b8057611b7f612b08565b5b9060005260206000209060080201600601541415611b9d57600080fd5b6000610e1060038381548110611bb657611bb5612b08565b5b90600052602060002090600802016006015442611bd39190612b66565b1015611c1257601860038381548110611bef57611bee612b08565b5b906000526020600020906008020160030154611c0b9190612bc9565b9050611c84565b60038281548110611c2657611c25612b08565b5b9060005260206000209060080201600301546201518060038481548110611c5057611c4f612b08565b5b90600052602060002090600802016006015442611c6d9190612b66565b611c779190612bc9565b611c819190612bfa565b90505b60038281548110611c9857611c97612b08565b5b90600052602060002090600802016002015481611cb59190612dcc565b60038381548110611cc957611cc8612b08565b5b90600052602060002090600802016005015411611ce557600080fd5b600560009054906101000a900473ffffffffffffffffffffffffffffffffffffffff1673ffffffffffffffffffffffffffffffffffffffff1663a9059cbb60038481548110611d3757611d36612b08565b5b906000526020600020906008020160000160009054906101000a900473ffffffffffffffffffffffffffffffffffffffff166064606085611d789190612bfa565b611d829190612bc9565b6040518363ffffffff1660e01b8152600401611d9f929190612e22565b6020604051808303816000875af1158015611dbe573d6000803e3d6000fd5b505050506040513d601f19601f82011682018060405250810190611de29190612e83565b50600560009054906101000a900473ffffffffffffffffffffffffffffffffffffffff1673ffffffffffffffffffffffffffffffffffffffff1663a9059cbb600260009054906101000a900473ffffffffffffffffffffffffffffffffffffffff166064600485611e539190612bfa565b611e5d9190612bc9565b6040518363ffffffff1660e01b8152600401611e7a929190612e22565b6020604051808303816000875af1158015611e99573d6000803e3d6000fd5b505050506040513d601f19601f82011682018060405250810190611ebd9190612e83565b50600560009054906101000a900473ffffffffffffffffffffffffffffffffffffffff1673ffffffffffffffffffffffffffffffffffffffff1663a9059cbb338360038681548110611f1257611f11612b08565b5b906000526020600020906008020160050154611f2e9190612b66565b6040518363ffffffff1660e01b8152600401611f4b929190612e22565b6020604051808303816000875af1158015611f6a573d6000803e3d6000fd5b505050506040513d601f19601f82011682018060405250810190611f8e9190612e83565b50600460009054906101000a900473ffffffffffffffffffffffffffffffffffffffff1673ffffffffffffffffffffffffffffffffffffffff166342842e0e333060038681548110611fe357611fe2612b08565b5b9060005260206000209060080201600101546040518463ffffffff1660e01b815260040161201393929190612f53565b600060405180830381600087803b15801561202d57600080fd5b505af1158015612041573d6000803e3d6000fd5b5050505060006003838154811061205b5761205a612b08565b5b906000526020600020906008020160040160006101000a81548173ffffffffffffffffffffffffffffffffffffffff021916908373ffffffffffffffffffffffffffffffffffffffff1602179055506000600383815481106120c0576120bf612b08565b5b9060005260206000209060080201600501819055506000600383815481106120eb576120ea612b08565b5b9060005260206000209060080201600601819055506040518060400160405280600481526020017f4f70656e000000000000000000000000000000000000000000000000000000008152506003838154811061214a57612149612b08565b5b9060005260206000209060080201600701908051906020019061216e92919061255b565b507faa71c084a2a0d0c3b0fd624bd5d5b3b3683bd753a7a645d1902cfd81742784268260405161219e919061292b565b60405180910390a15050565b6000600382815481106121c0576121bf612b08565b5b9060005260206000209060080201600601549050919050565b3373ffffffffffffffffffffffffffffffffffffffff166003828154811061220457612203612b08565b5b906000526020600020906008020160000160009054906101000a900473ffffffffffffffffffffffffffffffffffffffff1673ffffffffffffffffffffffffffffffffffffffff161461225657600080fd5b3073ffffffffffffffffffffffffffffffffffffffff16600460009054906101000a900473ffffffffffffffffffffffffffffffffffffffff1673ffffffffffffffffffffffffffffffffffffffff16636352211e600384815481106122bf576122be612b08565b5b9060005260206000209060080201600101546040518263ffffffff1660e01b81526004016122ed919061292b565b602060405180830381865afa15801561230a573d6000803e3d6000fd5b505050506040513d601f19601f8201168201806040525081019061232e9190613031565b73ffffffffffffffffffffffffffffffffffffffff161461234e57600080fd5b60405160200161235d90612efc565b604051602081830303815290604052805190602001206003828154811061238757612386612b08565b5b90600052602060002090600802016007016040516020016123a89190612db5565b60405160208183030381529060405280519060200120146123c857600080fd5b6040518060400160405280600981526020017f43616e63656c6c656400000000000000000000000000000000000000000000008152506003828154811061241257612411612b08565b5b9060005260206000209060080201600701908051906020019061243692919061255b565b50600460009054906101000a900473ffffffffffffffffffffffffffffffffffffffff1673ffffffffffffffffffffffffffffffffffffffff166342842e0e30336003858154811061248b5761248a612b08565b5b9060005260206000209060080201600101546040518463ffffffff1660e01b81526004016124bb93929190612f53565b600060405180830381600087803b1580156124d557600080fd5b505af11580156124e9573d6000803e3d6000fd5b505050507f4e455dbee07370885b62f673891219a5fee0380b3da49d8bcae6297dc345cde08160405161251c919061292b565b60405180910390a150565b600061253230612538565b15905090565b6000808273ffffffffffffffffffffffffffffffffffffffff163b119050919050565b82805461256790612cef565b90600052602060002090601f01602090048101928261258957600085556125d0565b82601f106125a257805160ff19168380011785556125d0565b828001600101855582156125d0579182015b828111156125cf5782518255916020019190600101906125b4565b5b5090506125dd91906125e1565b5090565b5b808211156125fa5760008160009055506001016125e2565b5090565b6000604051905090565b600080fd5b600080fd5b6000819050919050565b61262581612612565b811461263057600080fd5b50565b6000813590506126428161261c565b92915050565b60006020828403121561265e5761265d612608565b5b600061266c84828501612633565b91505092915050565b600073ffffffffffffffffffffffffffffffffffffffff82169050919050565b60006126a082612675565b9050919050565b6126b081612695565b82525050565b60006020820190506126cb60008301846126a7565b92915050565b6126da81612695565b81146126e557600080fd5b50565b6000813590506126f7816126d1565b92915050565b600080fd5b600080fd5b6000601f19601f8301169050919050565b7f4e487b7100000000000000000000000000000000000000000000000000000000600052604160045260246000fd5b61275082612707565b810181811067ffffffffffffffff8211171561276f5761276e612718565b5b80604052505050565b60006127826125fe565b905061278e8282612747565b919050565b600067ffffffffffffffff8211156127ae576127ad612718565b5b6127b782612707565b9050602081019050919050565b82818337600083830152505050565b60006127e66127e184612793565b612778565b90508281526020810184848401111561280257612801612702565b5b61280d8482856127c4565b509392505050565b600082601f83011261282a576128296126fd565b5b813561283a8482602086016127d3565b91505092915050565b6000806000806080858703121561285d5761285c612608565b5b600061286b878288016126e8565b945050602061287c878288016126e8565b935050604061288d87828801612633565b925050606085013567ffffffffffffffff8111156128ae576128ad61260d565b5b6128ba87828801612815565b91505092959194509250565b60007fffffffff0000000000000000000000000000000000000000000000000000000082169050919050565b6128fb816128c6565b82525050565b600060208201905061291660008301846128f2565b92915050565b61292581612612565b82525050565b6000602082019050612940600083018461291c565b92915050565b6000806040838503121561295d5761295c612608565b5b600061296b85828601612633565b925050602061297c85828601612633565b9150509250929050565b600081519050919050565b600082825260208201905092915050565b60005b838110156129c05780820151818401526020810190506129a5565b838111156129cf576000848401525b50505050565b60006129e082612986565b6129ea8185612991565b93506129fa8185602086016129a2565b612a0381612707565b840191505092915050565b600061010082019050612a24600083018b6126a7565b612a31602083018a61291c565b612a3e604083018961291c565b612a4b606083018861291c565b612a5860808301876126a7565b612a6560a083018661291c565b612a7260c083018561291c565b81810360e0830152612a8481846129d5565b90509998505050505050505050565b60006020820190508181036000830152612aad81846129d5565b905092915050565b600080600060608486031215612ace57612acd612608565b5b6000612adc86828701612633565b9350506020612aed86828701612633565b9250506040612afe86828701612633565b9150509250925092565b7f4e487b7100000000000000000000000000000000000000000000000000000000600052603260045260246000fd5b7f4e487b7100000000000000000000000000000000000000000000000000000000600052601160045260246000fd5b6000612b7182612612565b9150612b7c83612612565b925082821015612b8f57612b8e612b37565b5b828203905092915050565b7f4e487b7100000000000000000000000000000000000000000000000000000000600052601260045260246000fd5b6000612bd482612612565b9150612bdf83612612565b925082612bef57612bee612b9a565b5b828204905092915050565b6000612c0582612612565b9150612c1083612612565b9250817fffffffffffffffffffffffffffffffffffffffffffffffffffffffffffffffff0483118215151615612c4957612c48612b37565b5b828202905092915050565b600081905092915050565b7f4f6e000000000000000000000000000000000000000000000000000000000000600082015250565b6000612c95600283612c54565b9150612ca082612c5f565b600282019050919050565b6000612cb682612c88565b9150819050919050565b7f4e487b7100000000000000000000000000000000000000000000000000000000600052602260045260246000fd5b60006002820490506001821680612d0757607f821691505b60208210811415612d1b57612d1a612cc0565b5b50919050565b60008190508160005260206000209050919050565b60008154612d4381612cef565b612d4d8186612c54565b94506001821660008114612d685760018114612d7957612dac565b60ff19831686528186019350612dac565b612d8285612d21565b60005b83811015612da457815481890152600182019150602081019050612d85565b838801955050505b50505092915050565b6000612dc18284612d36565b915081905092915050565b6000612dd782612612565b9150612de283612612565b9250827fffffffffffffffffffffffffffffffffffffffffffffffffffffffffffffffff03821115612e1757612e16612b37565b5b828201905092915050565b6000604082019050612e3760008301856126a7565b612e44602083018461291c565b9392505050565b60008115159050919050565b612e6081612e4b565b8114612e6b57600080fd5b50565b600081519050612e7d81612e57565b92915050565b600060208284031215612e9957612e98612608565b5b6000612ea784828501612e6e565b91505092915050565b7f4f70656e00000000000000000000000000000000000000000000000000000000600082015250565b6000612ee6600483612c54565b9150612ef182612eb0565b600482019050919050565b6000612f0782612ed9565b9150819050919050565b600081519050612f208161261c565b92915050565b600060208284031215612f3c57612f3b612608565b5b6000612f4a84828501612f11565b91505092915050565b6000606082019050612f6860008301866126a7565b612f7560208301856126a7565b612f82604083018461291c565b949350505050565b7f496e697469616c697a61626c653a20636f6e747261637420697320616c72656160008201527f647920696e697469616c697a6564000000000000000000000000000000000000602082015250565b6000612fe6602e83612991565b9150612ff182612f8a565b604082019050919050565b6000602082019050818103600083015261301581612fd9565b9050919050565b60008151905061302b816126d1565b92915050565b60006020828403121561304757613046612608565b5b60006130558482850161301c565b9150509291505056fea2646970667358221220622467c29e6ac64954a6990aa701ad72d1291f0e03e8dcf9de250cc4370442ec64736f6c634300080c0033",
  "immutableReferences": {},
  "source": "// SPDX-License-Identifier: UNLICENSED\r\n\r\npragma solidity ^0.8.3;\r\n\r\nimport \"./AbstractHero.sol\";\r\nimport \"./AbstractJewel.sol\";\r\nimport \"../node_modules/@openzeppelin/contracts/token/ERC721/utils/ERC721Holder.sol\";\r\nimport \"../node_modules/@openzeppelin/contracts-upgradeable/proxy/utils/Initializable.sol\";\r\n\r\ncontract HeroLending is Initializable, ERC721Holder {\r\n\r\n    event NewOffer(uint offerId);\r\n    event CancelOffer(uint offerId);\r\n    event AcceptOffer(uint offerId);\r\n    event RepayOffer(uint offerId);\r\n    event Liquidate(uint offerId);\r\n\r\n    struct Offer {\r\n        address owner;\r\n        uint heroId;\r\n        uint liquidation;\r\n        uint dailyFee;\r\n\r\n        address borrower;\r\n        uint collateral;\r\n        uint acceptTime;\r\n\r\n        string status;\r\n    }\r\n\r\n    address HeroAddress;\r\n    address JewelAddress;\r\n    address PayOutAddress;\r\n    Offer[] public offers;\r\n    AbstractHero hero;\r\n    AbstractJewel jewel;\r\n\r\n    function initialize() initializer public {\r\n        HeroAddress = 0xCF88D09658dD442E6FA1d721C2d783a8199B8c06;\r\n        JewelAddress = 0xAc8578b232f08b6FeC672adCe63987f5c57c0249;\r\n        PayOutAddress = 0x867df63D1eEAEF93984250f78B4bd83C70652dcE;\r\n        hero = AbstractHero(HeroAddress);\r\n        jewel = AbstractJewel(JewelAddress);\r\n    }\r\n\r\n    //View Functions\r\n\r\n    function offerOwner(uint offerId) public view returns (address) {\r\n        return offers[offerId].owner;\r\n    }\r\n\r\n    function offerHeroId(uint offerId) public view returns (uint) {\r\n        return offers[offerId].heroId;\r\n    }\r\n\r\n    function offerLiquidation(uint offerId) public view returns (uint) {\r\n        return offers[offerId].liquidation;\r\n    }\r\n\r\n    function offerDailyFee(uint offerId) public view returns (uint) {\r\n        return offers[offerId].dailyFee;\r\n    }\r\n\r\n\r\n\r\n    function offerBorrower(uint offerId) public view returns (address) {\r\n        return offers[offerId].borrower;\r\n    }\r\n\r\n    function offerCollateral(uint offerId) public view returns (uint) {\r\n        return offers[offerId].collateral;\r\n    }\r\n\r\n    function offerAcceptTime(uint offerId) public view returns (uint) {\r\n        return offers[offerId].acceptTime;\r\n    }\r\n\r\n\r\n\r\n    function offerStatus(uint offerId) public view returns (string memory) {\r\n        return offers[offerId].status;\r\n    }\r\n\r\n    function offersQuantity() public view returns (uint) {\r\n        uint quantity = offers.length;\r\n        return quantity;\r\n    }\r\n\r\n    //Main Functions\r\n\r\n    function createOffer(uint heroId, uint liquidation, uint fee) public {\r\n        require(hero.ownerOf(heroId) == msg.sender);\r\n\r\n        uint offerId = offers.length;\r\n        offers.push(Offer(msg.sender, heroId, liquidation, fee, address(0), 0, 0, \"Open\"));\r\n        hero.safeTransferFrom(msg.sender, address(this), heroId);\r\n        emit NewOffer(offerId);\r\n    }\r\n\r\n    function cancelOffer(uint offerId) public {\r\n        require(offers[offerId].owner == msg.sender);\r\n        require(hero.ownerOf(offers[offerId].heroId) == address(this));\r\n        require(keccak256(abi.encodePacked(offers[offerId].status)) == keccak256(abi.encodePacked(\"Open\")));\r\n\r\n        offers[offerId].status = \"Cancelled\";\r\n        hero.safeTransferFrom(address(this), msg.sender, offers[offerId].heroId);\r\n        emit CancelOffer(offerId);\r\n    }\r\n\r\n    function acceptOffer(uint offerId, uint collateral) public {\r\n        require(offers[offerId].owner != msg.sender);\r\n        require(keccak256(abi.encodePacked(offers[offerId].status)) == keccak256(abi.encodePacked(\"Open\")));\r\n        uint minimumFee = offers[offerId].dailyFee/24;\r\n        require(collateral > offers[offerId].liquidation + minimumFee);\r\n        require(jewel.balanceOf(msg.sender) >= collateral);\r\n\r\n        offers[offerId].status = \"On\";\r\n        offers[offerId].borrower = msg.sender;\r\n        offers[offerId].collateral = collateral;\r\n        offers[offerId].acceptTime = block.timestamp;\r\n        jewel.transferFrom(msg.sender, address(this), collateral);\r\n        hero.safeTransferFrom(address(this), msg.sender, offers[offerId].heroId);\r\n        emit AcceptOffer(offerId);\r\n    }\r\n\r\n    function repayOffer(uint offerId) public {\r\n        require(offers[offerId].borrower == msg.sender);\r\n        require(keccak256(abi.encodePacked(offers[offerId].status)) == keccak256(abi.encodePacked(\"On\")));\r\n        require(hero.ownerOf(offers[offerId].heroId) == msg.sender);\r\n        require(jewel.balanceOf(address(this)) >= offers[offerId].collateral);\r\n        require(offers[offerId].acceptTime != 0);\r\n        uint feeToPay;\r\n        //minimum Fee is at least 1 hour\r\n        if ((block.timestamp - offers[offerId].acceptTime) < 60*60) {\r\n            feeToPay = offers[offerId].dailyFee/24;\r\n        } else {\r\n            feeToPay = ((block.timestamp - offers[offerId].acceptTime)/(60*60*24))*offers[offerId].dailyFee;\r\n        }\r\n        // User is not liquidated\r\n        require(offers[offerId].collateral > (feeToPay + offers[offerId].liquidation));\r\n\r\n        jewel.transfer(offers[offerId].owner, feeToPay*96/100);\r\n        jewel.transfer(PayOutAddress, feeToPay*4/100);\r\n        jewel.transfer(msg.sender, (offers[offerId].collateral - feeToPay));\r\n        hero.safeTransferFrom(msg.sender, address(this), offers[offerId].heroId);\r\n\r\n        offers[offerId].borrower = address(0);\r\n        offers[offerId].collateral = 0;\r\n        offers[offerId].acceptTime = 0;\r\n        offers[offerId].status = \"Open\";\r\n        emit RepayOffer(offerId);\r\n    }\r\n\r\n    function addCollateral(uint offerId, uint extraCollateral) public {\r\n        require(offers[offerId].borrower == msg.sender);\r\n        require(keccak256(abi.encodePacked(offers[offerId].status)) == keccak256(abi.encodePacked(\"On\")));\r\n        require(jewel.balanceOf(address(this)) >= extraCollateral);\r\n\r\n        offers[offerId].collateral = offers[offerId].collateral + extraCollateral;\r\n        jewel.transferFrom(msg.sender, address(this), extraCollateral);\r\n    }\r\n\r\n    function liquidate(uint offerId) public {\r\n        uint feeToPay = ((block.timestamp - offers[offerId].acceptTime)/(60*60*24))*offers[offerId].dailyFee;\r\n        require(keccak256(abi.encodePacked(offers[offerId].status)) == keccak256(abi.encodePacked(\"On\")));\r\n        require(offers[offerId].collateral < (feeToPay + offers[offerId].liquidation));\r\n\r\n        offers[offerId].status = \"Liquidated\";\r\n        jewel.transfer(offers[offerId].owner, offers[offerId].collateral*90/100);\r\n        jewel.transfer(PayOutAddress, offers[offerId].collateral*10/100);\r\n        emit Liquidate(offerId);\r\n    }\r\n}",
  "sourcePath": "C:\\Users\\jtsch\\OneDrive\\Escritorio\\DFK-Lending\\DFK-Lending-SmartContracts\\contracts\\HeroLending.sol",
  "compiler": {
    "name": "solc",
    "version": "0.8.12+commit.f00d7308.Emscripten.clang"
  },
  "schemaVersion": "3.4.3",
  "updatedAt": "2022-02-17T18:03:16.785Z",
  "networkType": "ethereum",
  "devdoc": {
    "kind": "dev",
    "methods": {
      "onERC721Received(address,address,uint256,bytes)": {
        "details": "See {IERC721Receiver-onERC721Received}. Always returns `IERC721Receiver.onERC721Received.selector`."
      }
    },
    "version": 1
  },
  "userdoc": {
    "kind": "user",
    "methods": {},
    "version": 1
  }
}